{
    "_format": "hh-sol-artifact-1",
    "contractName": "ExeToken",
    "sourceName": "contracts/token/ExeToken.sol",
    "abi": [
        {
            "anonymous": false,
            "inputs": [
                {
                    "indexed": true,
                    "internalType": "address",
                    "name": "owner",
                    "type": "address"
                },
                {
                    "indexed": true,
                    "internalType": "address",
                    "name": "approved",
                    "type": "address"
                },
                {
                    "indexed": true,
                    "internalType": "uint256",
                    "name": "tokenId",
                    "type": "uint256"
                }
            ],
            "name": "Approval",
            "type": "event"
        },
        {
            "anonymous": false,
            "inputs": [
                {
                    "indexed": true,
                    "internalType": "address",
                    "name": "owner",
                    "type": "address"
                },
                {
                    "indexed": true,
                    "internalType": "address",
                    "name": "operator",
                    "type": "address"
                },
                {
                    "indexed": false,
                    "internalType": "bool",
                    "name": "approved",
                    "type": "bool"
                }
            ],
            "name": "ApprovalForAll",
            "type": "event"
        },
        {
            "anonymous": false,
            "inputs": [
                {
                    "indexed": true,
                    "internalType": "uint256",
                    "name": "tokenId",
                    "type": "uint256"
                },
                {
                    "indexed": true,
                    "internalType": "address",
                    "name": "creator",
                    "type": "address"
                },
                {
                    "indexed": true,
                    "internalType": "address",
                    "name": "owner",
                    "type": "address"
                },
                {
                    "indexed": false,
                    "internalType": "uint256",
                    "name": "timestamp",
                    "type": "uint256"
                }
            ],
            "name": "Executed",
            "type": "event"
        },
        {
            "anonymous": false,
            "inputs": [
                {
                    "indexed": false,
                    "internalType": "uint8",
                    "name": "version",
                    "type": "uint8"
                }
            ],
            "name": "Initialized",
            "type": "event"
        },
        {
            "anonymous": false,
            "inputs": [
                {
                    "indexed": true,
                    "internalType": "address",
                    "name": "creator",
                    "type": "address"
                },
                {
                    "indexed": true,
                    "internalType": "uint256",
                    "name": "tokenId",
                    "type": "uint256"
                },
                {
                    "indexed": true,
                    "internalType": "bytes32",
                    "name": "name",
                    "type": "bytes32"
                }
            ],
            "name": "Minted",
            "type": "event"
        },
        {
            "anonymous": false,
            "inputs": [
                {
                    "indexed": true,
                    "internalType": "address",
                    "name": "previousOwner",
                    "type": "address"
                },
                {
                    "indexed": true,
                    "internalType": "address",
                    "name": "newOwner",
                    "type": "address"
                }
            ],
            "name": "OwnershipTransferred",
            "type": "event"
        },
        {
            "anonymous": false,
            "inputs": [
                {
                    "indexed": true,
                    "internalType": "uint256",
                    "name": "tokenId",
                    "type": "uint256"
                },
                {
                    "indexed": true,
                    "internalType": "bool",
                    "name": "disabled",
                    "type": "bool"
                }
            ],
            "name": "TokenDisabled",
            "type": "event"
        },
        {
            "anonymous": false,
            "inputs": [
                {
                    "indexed": true,
                    "internalType": "address",
                    "name": "from",
                    "type": "address"
                },
                {
                    "indexed": true,
                    "internalType": "address",
                    "name": "to",
                    "type": "address"
                },
                {
                    "indexed": true,
                    "internalType": "uint256",
                    "name": "tokenId",
                    "type": "uint256"
                }
            ],
            "name": "Transfer",
            "type": "event"
        },
        {
            "inputs": [],
            "name": "admin",
            "outputs": [
                {
                    "internalType": "address",
                    "name": "",
                    "type": "address"
                }
            ],
            "stateMutability": "view",
            "type": "function"
        },
        {
            "inputs": [
                {
                    "internalType": "address",
                    "name": "to",
                    "type": "address"
                },
                {
                    "internalType": "uint256",
                    "name": "tokenId",
                    "type": "uint256"
                }
            ],
            "name": "approve",
            "outputs": [],
            "stateMutability": "nonpayable",
            "type": "function"
        },
        {
            "inputs": [
                {
                    "internalType": "address",
                    "name": "owner",
                    "type": "address"
                }
            ],
            "name": "balanceOf",
            "outputs": [
                {
                    "internalType": "uint256",
                    "name": "",
                    "type": "uint256"
                }
            ],
            "stateMutability": "view",
            "type": "function"
        },
        {
            "inputs": [
                {
                    "internalType": "uint256",
                    "name": "_tokenId",
                    "type": "uint256"
                },
                {
                    "components": [
                        {
                            "internalType": "bytes",
                            "name": "value",
                            "type": "bytes"
                        },
                        {
                            "internalType": "uint256",
                            "name": "identifierIndex",
                            "type": "uint256"
                        },
                        {
                            "internalType": "bool",
                            "name": "numberSign",
                            "type": "bool"
                        },
                        {
                            "internalType": "enum IJSInterpreter.JSValueType",
                            "name": "valueType",
                            "type": "uint8"
                        }
                    ],
                    "internalType": "struct IJSInterpreter.JSValue[]",
                    "name": "_args",
                    "type": "tuple[]"
                }
            ],
            "name": "execute",
            "outputs": [
                {
                    "components": [
                        {
                            "internalType": "bytes",
                            "name": "value",
                            "type": "bytes"
                        },
                        {
                            "internalType": "uint256",
                            "name": "identifierIndex",
                            "type": "uint256"
                        },
                        {
                            "internalType": "bool",
                            "name": "numberSign",
                            "type": "bool"
                        },
                        {
                            "internalType": "enum IJSInterpreter.JSValueType",
                            "name": "valueType",
                            "type": "uint8"
                        }
                    ],
                    "internalType": "struct IJSInterpreter.JSValue",
                    "name": "",
                    "type": "tuple"
                }
            ],
            "stateMutability": "view",
            "type": "function"
        },
        {
            "inputs": [
                {
                    "internalType": "uint256",
                    "name": "_tokenId",
                    "type": "uint256"
                },
                {
                    "components": [
                        {
                            "internalType": "bytes",
                            "name": "value",
                            "type": "bytes"
                        },
                        {
                            "internalType": "uint256",
                            "name": "identifierIndex",
                            "type": "uint256"
                        },
                        {
                            "internalType": "bool",
                            "name": "numberSign",
                            "type": "bool"
                        },
                        {
                            "internalType": "enum IJSInterpreter.JSValueType",
                            "name": "valueType",
                            "type": "uint8"
                        }
                    ],
                    "internalType": "struct IJSInterpreter.JSValue[]",
                    "name": "_args",
                    "type": "tuple[]"
                }
            ],
            "name": "executeToString",
            "outputs": [
                {
                    "internalType": "string",
                    "name": "",
                    "type": "string"
                }
            ],
            "stateMutability": "view",
            "type": "function"
        },
        {
            "inputs": [
                {
                    "internalType": "uint256",
                    "name": "tokenId",
                    "type": "uint256"
                }
            ],
            "name": "getApproved",
            "outputs": [
                {
                    "internalType": "address",
                    "name": "",
                    "type": "address"
                }
            ],
            "stateMutability": "view",
            "type": "function"
        },
        {
            "inputs": [
                {
                    "internalType": "uint256",
                    "name": "_tokenId",
                    "type": "uint256"
                }
            ],
            "name": "getExecutedCount",
            "outputs": [
                {
                    "internalType": "uint256",
                    "name": "",
                    "type": "uint256"
                }
            ],
            "stateMutability": "view",
            "type": "function"
        },
        {
            "inputs": [
                {
                    "internalType": "address",
                    "name": "_creator",
                    "type": "address"
                }
            ],
            "name": "getTokenIdsByCreator",
            "outputs": [
                {
                    "internalType": "uint256[]",
                    "name": "",
                    "type": "uint256[]"
                }
            ],
            "stateMutability": "view",
            "type": "function"
        },
        {
            "inputs": [
                {
                    "internalType": "address",
                    "name": "_owner",
                    "type": "address"
                }
            ],
            "name": "getTokenIdsByOwner",
            "outputs": [
                {
                    "internalType": "uint256[]",
                    "name": "",
                    "type": "uint256[]"
                }
            ],
            "stateMutability": "view",
            "type": "function"
        },
        {
            "inputs": [
                {
                    "internalType": "uint256",
                    "name": "_tokenId",
                    "type": "uint256"
                }
            ],
            "name": "incrementExecutedCount",
            "outputs": [],
            "stateMutability": "nonpayable",
            "type": "function"
        },
        {
            "inputs": [
                {
                    "internalType": "contract ISnippetJS",
                    "name": "_snippetJs",
                    "type": "address"
                },
                {
                    "internalType": "contract IFontProvider",
                    "name": "_fontProvider",
                    "type": "address"
                },
                {
                    "internalType": "contract ITokenCategoryStore",
                    "name": "_categoryStore",
                    "type": "address"
                }
            ],
            "name": "initialize",
            "outputs": [],
            "stateMutability": "nonpayable",
            "type": "function"
        },
        {
            "inputs": [
                {
                    "internalType": "address",
                    "name": "owner",
                    "type": "address"
                },
                {
                    "internalType": "address",
                    "name": "operator",
                    "type": "address"
                }
            ],
            "name": "isApprovedForAll",
            "outputs": [
                {
                    "internalType": "bool",
                    "name": "",
                    "type": "bool"
                }
            ],
            "stateMutability": "view",
            "type": "function"
        },
        {
            "inputs": [
                {
                    "components": [
                        {
                            "internalType": "address",
                            "name": "creator",
                            "type": "address"
                        },
                        {
                            "internalType": "string",
                            "name": "code",
                            "type": "string"
                        },
                        {
                            "internalType": "string",
                            "name": "lang",
                            "type": "string"
                        },
                        {
                            "internalType": "string",
                            "name": "name",
                            "type": "string"
                        },
                        {
                            "internalType": "string",
                            "name": "description",
                            "type": "string"
                        },
                        {
                            "internalType": "string",
                            "name": "content",
                            "type": "string"
                        },
                        {
                            "internalType": "string",
                            "name": "contentColor",
                            "type": "string"
                        },
                        {
                            "internalType": "string",
                            "name": "contentOpacity",
                            "type": "string"
                        },
                        {
                            "internalType": "string",
                            "name": "backgroundColor",
                            "type": "string"
                        },
                        {
                            "internalType": "uint32",
                            "name": "contentOffsetX",
                            "type": "uint32"
                        },
                        {
                            "internalType": "uint32",
                            "name": "contentOffsetY",
                            "type": "uint32"
                        }
                    ],
                    "internalType": "struct IExeToken.TokenAttributes",
                    "name": "_attrs",
                    "type": "tuple"
                },
                {
                    "internalType": "uint32[]",
                    "name": "_categories",
                    "type": "uint32[]"
                }
            ],
            "name": "mint",
            "outputs": [
                {
                    "internalType": "uint256",
                    "name": "",
                    "type": "uint256"
                }
            ],
            "stateMutability": "nonpayable",
            "type": "function"
        },
        {
            "inputs": [],
            "name": "name",
            "outputs": [
                {
                    "internalType": "string",
                    "name": "",
                    "type": "string"
                }
            ],
            "stateMutability": "view",
            "type": "function"
        },
        {
            "inputs": [],
            "name": "owner",
            "outputs": [
                {
                    "internalType": "address",
                    "name": "",
                    "type": "address"
                }
            ],
            "stateMutability": "view",
            "type": "function"
        },
        {
            "inputs": [
                {
                    "internalType": "uint256",
                    "name": "tokenId",
                    "type": "uint256"
                }
            ],
            "name": "ownerOf",
            "outputs": [
                {
                    "internalType": "address",
                    "name": "",
                    "type": "address"
                }
            ],
            "stateMutability": "view",
            "type": "function"
        },
        {
            "inputs": [
                {
                    "components": [
                        {
                            "internalType": "address",
                            "name": "creator",
                            "type": "address"
                        },
                        {
                            "internalType": "string",
                            "name": "code",
                            "type": "string"
                        },
                        {
                            "internalType": "string",
                            "name": "lang",
                            "type": "string"
                        },
                        {
                            "internalType": "string",
                            "name": "name",
                            "type": "string"
                        },
                        {
                            "internalType": "string",
                            "name": "description",
                            "type": "string"
                        },
                        {
                            "internalType": "string",
                            "name": "content",
                            "type": "string"
                        },
                        {
                            "internalType": "string",
                            "name": "contentColor",
                            "type": "string"
                        },
                        {
                            "internalType": "string",
                            "name": "contentOpacity",
                            "type": "string"
                        },
                        {
                            "internalType": "string",
                            "name": "backgroundColor",
                            "type": "string"
                        },
                        {
                            "internalType": "uint32",
                            "name": "contentOffsetX",
                            "type": "uint32"
                        },
                        {
                            "internalType": "uint32",
                            "name": "contentOffsetY",
                            "type": "uint32"
                        }
                    ],
                    "internalType": "struct IExeToken.TokenAttributes",
                    "name": "_attrs",
                    "type": "tuple"
                },
                {
                    "components": [
                        {
                            "internalType": "bytes",
                            "name": "value",
                            "type": "bytes"
                        },
                        {
                            "internalType": "uint256",
                            "name": "identifierIndex",
                            "type": "uint256"
                        },
                        {
                            "internalType": "bool",
                            "name": "numberSign",
                            "type": "bool"
                        },
                        {
                            "internalType": "enum IJSInterpreter.JSValueType",
                            "name": "valueType",
                            "type": "uint8"
                        }
                    ],
                    "internalType": "struct IJSInterpreter.JSValue[]",
                    "name": "_args",
                    "type": "tuple[]"
                }
            ],
            "name": "preview",
            "outputs": [
                {
                    "internalType": "string",
                    "name": "",
                    "type": "string"
                }
            ],
            "stateMutability": "view",
            "type": "function"
        },
        {
            "inputs": [],
            "name": "renounceOwnership",
            "outputs": [],
            "stateMutability": "nonpayable",
            "type": "function"
        },
        {
            "inputs": [
                {
                    "internalType": "address",
                    "name": "from",
                    "type": "address"
                },
                {
                    "internalType": "address",
                    "name": "to",
                    "type": "address"
                },
                {
                    "internalType": "uint256",
                    "name": "tokenId",
                    "type": "uint256"
                }
            ],
            "name": "safeTransferFrom",
            "outputs": [],
            "stateMutability": "nonpayable",
            "type": "function"
        },
        {
            "inputs": [
                {
                    "internalType": "address",
                    "name": "from",
                    "type": "address"
                },
                {
                    "internalType": "address",
                    "name": "to",
                    "type": "address"
                },
                {
                    "internalType": "uint256",
                    "name": "tokenId",
                    "type": "uint256"
                },
                {
                    "internalType": "bytes",
                    "name": "data",
                    "type": "bytes"
                }
            ],
            "name": "safeTransferFrom",
            "outputs": [],
            "stateMutability": "nonpayable",
            "type": "function"
        },
        {
            "inputs": [
                {
                    "internalType": "address",
                    "name": "_admin",
                    "type": "address"
                }
            ],
            "name": "setAdmin",
            "outputs": [],
            "stateMutability": "nonpayable",
            "type": "function"
        },
        {
            "inputs": [
                {
                    "internalType": "address",
                    "name": "operator",
                    "type": "address"
                },
                {
                    "internalType": "bool",
                    "name": "approved",
                    "type": "bool"
                }
            ],
            "name": "setApprovalForAll",
            "outputs": [],
            "stateMutability": "nonpayable",
            "type": "function"
        },
        {
            "inputs": [
                {
                    "internalType": "uint256",
                    "name": "_tokenId",
                    "type": "uint256"
                },
                {
                    "internalType": "bool",
                    "name": "disabled",
                    "type": "bool"
                }
            ],
            "name": "setDisabled",
            "outputs": [],
            "stateMutability": "nonpayable",
            "type": "function"
        },
        {
            "inputs": [
                {
                    "internalType": "contract IFontProvider",
                    "name": "_fontProvider",
                    "type": "address"
                }
            ],
            "name": "setFontProvider",
            "outputs": [],
            "stateMutability": "nonpayable",
            "type": "function"
        },
        {
            "inputs": [
                {
                    "internalType": "contract ISnippetJS",
                    "name": "_snippetJs",
                    "type": "address"
                }
            ],
            "name": "setSnippetJs",
            "outputs": [],
            "stateMutability": "nonpayable",
            "type": "function"
        },
        {
            "inputs": [
                {
                    "internalType": "bytes4",
                    "name": "interfaceId",
                    "type": "bytes4"
                }
            ],
            "name": "supportsInterface",
            "outputs": [
                {
                    "internalType": "bool",
                    "name": "",
                    "type": "bool"
                }
            ],
            "stateMutability": "view",
            "type": "function"
        },
        {
            "inputs": [],
            "name": "symbol",
            "outputs": [
                {
                    "internalType": "string",
                    "name": "",
                    "type": "string"
                }
            ],
            "stateMutability": "view",
            "type": "function"
        },
        {
            "inputs": [
                {
                    "internalType": "string",
                    "name": "_code",
                    "type": "string"
                },
                {
                    "components": [
                        {
                            "internalType": "bytes",
                            "name": "value",
                            "type": "bytes"
                        },
                        {
                            "internalType": "uint256",
                            "name": "identifierIndex",
                            "type": "uint256"
                        },
                        {
                            "internalType": "bool",
                            "name": "numberSign",
                            "type": "bool"
                        },
                        {
                            "internalType": "enum IJSInterpreter.JSValueType",
                            "name": "valueType",
                            "type": "uint8"
                        }
                    ],
                    "internalType": "struct IJSInterpreter.JSValue[]",
                    "name": "_args",
                    "type": "tuple[]"
                }
            ],
            "name": "test",
            "outputs": [
                {
                    "internalType": "string",
                    "name": "",
                    "type": "string"
                }
            ],
            "stateMutability": "view",
            "type": "function"
        },
        {
            "inputs": [
                {
                    "internalType": "uint256",
                    "name": "index",
                    "type": "uint256"
                }
            ],
            "name": "tokenByIndex",
            "outputs": [
                {
                    "internalType": "uint256",
                    "name": "",
                    "type": "uint256"
                }
            ],
            "stateMutability": "view",
            "type": "function"
        },
        {
            "inputs": [
                {
                    "internalType": "address",
                    "name": "owner",
                    "type": "address"
                },
                {
                    "internalType": "uint256",
                    "name": "index",
                    "type": "uint256"
                }
            ],
            "name": "tokenOfOwnerByIndex",
            "outputs": [
                {
                    "internalType": "uint256",
                    "name": "",
                    "type": "uint256"
                }
            ],
            "stateMutability": "view",
            "type": "function"
        },
        {
            "inputs": [
                {
                    "internalType": "uint256",
                    "name": "_tokenId",
                    "type": "uint256"
                }
            ],
            "name": "tokenURI",
            "outputs": [
                {
                    "internalType": "string",
                    "name": "",
                    "type": "string"
                }
            ],
            "stateMutability": "view",
            "type": "function"
        },
        {
            "inputs": [],
            "name": "totalSupply",
            "outputs": [
                {
                    "internalType": "uint256",
                    "name": "",
                    "type": "uint256"
                }
            ],
            "stateMutability": "view",
            "type": "function"
        },
        {
            "inputs": [
                {
                    "internalType": "address",
                    "name": "from",
                    "type": "address"
                },
                {
                    "internalType": "address",
                    "name": "to",
                    "type": "address"
                },
                {
                    "internalType": "uint256",
                    "name": "tokenId",
                    "type": "uint256"
                }
            ],
            "name": "transferFrom",
            "outputs": [],
            "stateMutability": "nonpayable",
            "type": "function"
        },
        {
            "inputs": [
                {
                    "internalType": "address",
                    "name": "newOwner",
                    "type": "address"
                }
            ],
            "name": "transferOwnership",
            "outputs": [],
            "stateMutability": "nonpayable",
            "type": "function"
        }
    ],
    "bytecode": "0x6080806040523461001657614e1e908161001c8239f35b600080fdfe60806040526004361015610013575b600080fd5b60003560e01c806301ffc9a7146102bb57806306fdde03146102b2578063081812fc146102a9578063095ea7b3146102a057806315ea29be1461029757806318160ddd1461028e5780631fd19eba1461028557806323b872dd1461027c5780632f745c591461027357806342842e0e1461026a5780634f6ccce7146102615780636352211e1461025857806364fb83b11461024f5780636970bb0a14610246578063704b6c021461023d57806370a0823114610234578063715018a61461022b5780637b12246b14610222578063828011911461021957806385a7185e146102105780638da5cb5b1461020757806395d89b41146101fe578063997c96c4146101f5578063a22cb465146101ec578063a498f4f4146101e3578063b0ec0c02146101da578063b88d4fde146101d1578063c0c53b8b146101c8578063c87b56dd146101bf578063ca7e89dc146101b6578063cdf41680146101ad578063e985e9c5146101a4578063f2fde38b1461019b5763f851a4401461019357600080fd5b61000e611a99565b5061000e6119f1565b5061000e611986565b5061000e611912565b5061000e6118af565b5061000e611762565b5061000e61165b565b5061000e611603565b5061000e611431565b5061000e611352565b5061000e6111f1565b5061000e611026565b5061000e610f7e565b5061000e610f56565b5061000e610e9e565b5061000e610daf565b5061000e610cf6565b5061000e610c99565b5061000e610c71565b5061000e610c2c565b5061000e610b9d565b5061000e610b27565b5061000e610b08565b5061000e610a4c565b5061000e610a04565b5061000e6109d0565b5061000e6109a6565b5061000e610813565b5061000e610776565b5061000e6106ad565b5061000e61058f565b5061000e610541565b5061000e61045b565b5061000e6102ee565b7fffffffff0000000000000000000000000000000000000000000000000000000081160361000e57565b503461000e57602036600319011261000e5760207fffffffff0000000000000000000000000000000000000000000000000000000060043561032f816102c4565b167f780e9d63000000000000000000000000000000000000000000000000000000008114908115610366575b506040519015158152f35b7f80ac58cd000000000000000000000000000000000000000000000000000000008114915081156103ca575b81156103a0575b503861035b565b7f01ffc9a70000000000000000000000000000000000000000000000000000000091501438610399565b7f5b5e139f0000000000000000000000000000000000000000000000000000000081149150610392565b600091031261000e57565b60005b8381106104125750506000910152565b8181015183820152602001610402565b9060209161043b815180928185528580860191016103ff565b601f01601f1916010190565b906020610458928181520190610422565b90565b503461000e5760008060031936011261053e57604051908060975461047f81611c58565b8085529160019180831690811561051457506001146104b9575b6104b5856104a981870382611520565b60405191829182610447565b0390f35b9250609783527f354a83ed9988f79f6038d4c7a7dadbad8af32f4ad6df893e0e5807a1b1944ff95b8284106104fc5750505081016020016104a9826104b5610499565b805460208587018101919091529093019281016104e1565b8695506104b5969350602092506104a994915060ff191682840152151560051b8201019293610499565b80fd5b503461000e57602036600319011261000e576020610560600435611da7565b6001600160a01b0360405191168152f35b6001600160a01b0381160361000e57565b359061058d82610571565b565b503461000e57604036600319011261000e576004356105ad81610571565b6024356105b981611c36565b916001600160a01b038084168091831614610639576105eb936105e69133149081156105ed575b50611d36565b612194565b005b610633915061062c9061061433916001600160a01b0316600052609c602052604060002090565b906001600160a01b0316600052602052604060002090565b5460ff1690565b386105e0565b608460405162461bcd60e51b815260206004820152602160248201527f4552433732313a20617070726f76616c20746f2063757272656e74206f776e6560448201527f72000000000000000000000000000000000000000000000000000000000000006064820152fd5b8015150361000e57565b503461000e57604036600319011261000e576024356004356106ce826106a3565b61070d6001600160a01b0380603354163314908182159283610769575b6106f490612d02565b6107018560fe5411612d4d565b9161075b575b50612d02565b60009181835260ff60205261073181604085209060ff801983541691151516179055565b1515907f13723d113cacd273de1c6a40fd31f530c1868b6bf42f5833f70350ff78d79ad28380a380f35b60fb54163314905038610707565b5060fb54821633146106eb565b503461000e57600036600319011261000e57602060cb54604051908152f35b9181601f8401121561000e5782359167ffffffffffffffff831161000e576020808501948460051b01011161000e57565b9060031960408184011261000e5760043567ffffffffffffffff9182821161000e5761016090828603011261000e576004019260243591821161000e5761080f91600401610795565b9091565b503461000e57610822366107c6565b906101608336031261000e57610836611542565b9061084084610582565b825267ffffffffffffffff90602085013582811161000e5761086590369087016115bc565b6020840152604085013582811161000e5761088390369087016115bc565b6040840152606085013582811161000e576108a190369087016115bc565b6060840152608085013582811161000e576108bf90369087016115bc565b608084015260a085013582811161000e576108dd90369087016115bc565b60a084015260c085013582811161000e576108fb90369087016115bc565b60c084015260e085013582811161000e5761091990369087016115bc565b60e0840152610100938486013592831161000e576104b5956104a99561094561097495369084016115bc565b90860152610120610957818301612e5e565b90860152610969610140809201612e5e565b908501523691612e73565b90613860565b606090600319011261000e5760043561099281610571565b9060243561099f81610571565b9060443590565b503461000e576105eb6109b83661097a565b916109cb6109c68433611f22565b611de9565b612014565b503461000e57604036600319011261000e5760206109fc6004356109f381610571565b602435906123c5565b604051908152f35b503461000e576105eb610a163661097a565b90604051926020840184811067ffffffffffffffff821117610a3f575b60405260008452611e8c565b610a47611494565b610a33565b503461000e57602036600319011261000e5760043560cb54811015610a9e5760cb6000527fa7ce836d032b2bf62b7e2097a8e0a6d8aeb35405ad15271e96d3b0188a1d06fb0154604051908152602090f35b608460405162461bcd60e51b815260206004820152602c60248201527f455243373231456e756d657261626c653a20676c6f62616c20696e646578206f60448201527f7574206f6620626f756e647300000000000000000000000000000000000000006064820152fd5b503461000e57602036600319011261000e576020610560600435611c36565b503461000e57602036600319011261000e57600435610b498160fe5411612d4d565b6000526101036020526020604060002054604051908152f35b6020908160408183019282815285518094520193019160005b828110610b89575050505090565b835185529381019392810192600101610b7b565b503461000e57602036600319011261000e57600435610bbb81610571565b610bc481611b61565b610bcd81612d98565b91610bdb6040519384611520565b818352601f19610bea83612d98565b0136602085013760005b828110610c0957604051806104b58682610b62565b80610c17610c2792846123c5565b610c218287612e2e565b52612dda565b610bf4565b503461000e57602036600319011261000e576001600160a01b03600435610c5281610571565b610c5a611ac1565b166001600160a01b031960fb54161760fb55600080f35b503461000e57602036600319011261000e5760206109fc600435610c9481610571565b611b61565b503461000e5760008060031936011261053e57610cb4611ac1565b806001600160a01b036033546001600160a01b03198116603355167f8be0079c531659141344cd1fd0a4f28419497f9722a3daafe3b4186f6b6457e08280a380f35b503461000e5760208060031936011261000e576001600160a01b03600435610d1d81610571565b1660005260fd8152604060002090604051908181845491828152019360005281600020916000905b828210610d68576104b585610d5c81890382611520565b60405191829182610b62565b835486529485019460019384019390910190610d45565b90604060031983011261000e57600435916024359067ffffffffffffffff821161000e5761080f91600401610795565b503461000e576104b5610e4f6000610e1c610df8610dcc36610d7f565b939180869492945260ff602052610dea60ff60408820541615613739565b610df2614bb4565b50614c26565b91610e01612f36565b93610e0a612f93565b8552610e1585614927565b3691612e73565b602083015260206001600160a01b036101005416910151604051809581948293635a5c64ef60e11b845260048401613828565b03915afa908115610e91575b600091610e70575b5060405191829182610447565b610e8b913d8091833e610e838183611520565b810190613068565b38610e63565b610e99612242565b610e5b565b503461000e57602036600319011261000e576004356001600160a01b0390816033541633148015610f49575b610ed390612d02565b610ee08160fe5411612d4d565b806000526101036020526040600020610ef98154612dda565b9055610f03614bb4565b5081610f0e82614c26565b5116907f95474fc50506241409126520ce4036ede1ce133514e0e746730e5ab426cf8f716020610f3d83611c36565b604051428152951694a4005b5060fb5482163314610eca565b503461000e57600036600319011261000e5760206001600160a01b0360335416604051908152f35b503461000e5760008060031936011261053e576040519080609854610fa281611c58565b808552916001918083169081156105145750600114610fcb576104b5856104a981870382611520565b9250609883527f2237a976fa961f5921fd19f2b03c925c725d77b20ce8f790c19709c03de4d8145b82841061100e5750505081016020016104a9826104b5610499565b80546020858701810191909152909301928101610ff3565b503461000e57611035366107c6565b6060839293016020611047828561324e565b9050116111ad5760fc549061106361105e83612dda565b60fc55565b61106d8233613621565b611076846133b4565b6110a48261109f611086876132ca565b6001600160a01b031660005260fd602052604060002090565b6125e1565b6110c66110ba610102546001600160a01b031690565b6001600160a01b031690565b803b1561000e5761114561113c6111519361112560006104b59861114b966001600160a01b039c838b604051968795869485937fc5f4121e00000000000000000000000000000000000000000000000000000000855260048501613556565b03925af180156111a0575b611187575b508761324e565b918291976132ca565b966135ab565b906135b9565b81604051958695167fc263b302aec62d29105026245f19e16f8e0137066ccd4a8bd941f716bd4096bb600080a482526020820190565b8061119461119a926114ab565b806103f4565b38611135565b6111a8612242565b611130565b606460405162461bcd60e51b815260206004820152601460248201527f6e616d65206c656e67746820757020746f2033320000000000000000000000006044820152fd5b503461000e57604036600319011261000e5760043561120f81610571565b60243561121b816106a3565b6001600160a01b0382169182331461129e578161125b61126c9233600052609c6020526040600020906001600160a01b0316600052602052604060002090565b9060ff801983541691151516179055565b604051901515815233907f17307eab39ab6107e8899845ad3d59bd9653f200f220920489ca2b5937696c3190602090a3005b606460405162461bcd60e51b815260206004820152601960248201527f4552433732313a20617070726f766520746f2063616c6c6572000000000000006044820152fd5b90600e8210156112ef5752565b634e487b7160e01b600052602160045260246000fd5b90610458906060806113208551608085526080850190610422565b946020810151602085015260408101511515604085015201519101906112e2565b906020610458928181520190611305565b503461000e576104b56113e26000611396610df861136f36610d7f565b939161137c939193612f4f565b5080865260ff602052610dea60ff60408820541615613739565b602083015260206001600160a01b0361010054169101516040518095819482937f72dcce1100000000000000000000000000000000000000000000000000000000845260048401613828565b03915afa908115611424575b600091611403575b5060405191829182611341565b61141e913d8091833e6114168183611520565b81019061379a565b386113f6565b61142c612242565b6113ee565b503461000e57602036600319011261000e5760043561144f81610571565b6001600160a01b03806033541633148015611487575b61146e90612d02565b61010191166001600160a01b0319825416179055600080f35b5060fb5481163314611465565b50634e487b7160e01b600052604160045260246000fd5b67ffffffffffffffff81116114bf57604052565b6114c7611494565b604052565b6080810190811067ffffffffffffffff8211176114bf57604052565b6040810190811067ffffffffffffffff8211176114bf57604052565b6060810190811067ffffffffffffffff8211176114bf57604052565b90601f8019910116810190811067ffffffffffffffff8211176114bf57604052565b60405190610160820182811067ffffffffffffffff8211176114bf57604052565b60405190610120820182811067ffffffffffffffff8211176114bf57604052565b6040519061058d826114e8565b60209067ffffffffffffffff81116115af575b601f01601f19160190565b6115b7611494565b6115a4565b81601f8201121561000e578035906115d382611591565b926115e16040519485611520565b8284526020838301011161000e57816000926020809301838601378301015290565b503461000e57608036600319011261000e5760043561162181610571565b60243561162d81610571565b6064359167ffffffffffffffff831161000e576116516105eb9336906004016115bc565b9160443591611e8c565b503461000e57606036600319011261000e5760043561167981610571565b6116d660243561168881610571565b6044359061169582610571565b600054936116ba60ff8660081c161580968197611754575b8115611734575b506127d1565b846116cd600160ff196000541617600055565b61171b57612842565b6116dc57005b6116ec61ff001960005416600055565b604051600181527f7f26b83ff96e1f2b6a682f133852f6798a09c465da95921460cefb384740249890602090a1005b61172f61010061ff00196000541617600055565b612842565b303b15915081611746575b50386116b4565b6001915060ff16143861173f565b600160ff82161091506116ad565b503461000e57602036600319011261000e576104b56104a96004358060005260ff60205261179860ff6040600020541615613739565b6117a0614bb4565b506117ae8160fe5411612d4d565b6117b781613281565b509061189060096117c6611542565b936117e86117db82546001600160a01b031690565b6001600160a01b03168652565b6117f460018201611c92565b602086015261180560028201611c92565b604086015261181660038201611c92565b606086015261182760048201611c92565b608086015261183860058201611c92565b60a086015261184960068201611c92565b60c086015261185a60078201611c92565b60e086015261186b60088201611c92565b610100860152015463ffffffff80821661012086015260209190911c16610140840152565b61189981611c36565b9060005261010360205260406000205491613b81565b503461000e57602036600319011261000e576004356118cd81610571565b6001600160a01b03806033541633148015611905575b6118ec90612d02565b61010091166001600160a01b0319825416179055600080f35b5060fb54811633146118e3565b503461000e57604036600319011261000e5760043567ffffffffffffffff80821161000e573660238301121561000e5781600401359080821161000e57366024838501011161000e5760243590811161000e576104b5926104a99261197d6024933690600401610795565b93909201613192565b503461000e57604036600319011261000e57602060ff6119e56004356119ab81610571565b6001600160a01b03602435916119c083610571565b16600052609c84526040600020906001600160a01b0316600052602052604060002090565b54166040519015158152f35b503461000e57602036600319011261000e57600435611a0f81610571565b611a17611ac1565b6001600160a01b03811615611a2f576105eb90611b19565b608460405162461bcd60e51b815260206004820152602660248201527f4f776e61626c653a206e6577206f776e657220697320746865207a65726f206160448201527f64647265737300000000000000000000000000000000000000000000000000006064820152fd5b503461000e57600036600319011261000e5760206001600160a01b0360fb5416604051908152f35b6001600160a01b03603354163303611ad557565b606460405162461bcd60e51b815260206004820152602060248201527f4f776e61626c653a2063616c6c6572206973206e6f7420746865206f776e65726044820152fd5b603354906001600160a01b0380911691826001600160a01b0319821617603355167f8be0079c531659141344cd1fd0a4f28419497f9722a3daafe3b4186f6b6457e0600080a3565b6001600160a01b03168015611b8157600052609a60205260406000205490565b608460405162461bcd60e51b815260206004820152602960248201527f4552433732313a2061646472657373207a65726f206973206e6f74206120766160448201527f6c6964206f776e657200000000000000000000000000000000000000000000006064820152fd5b15611bf257565b606460405162461bcd60e51b815260206004820152601860248201527f4552433732313a20696e76616c696420746f6b656e20494400000000000000006044820152fd5b60005260996020526001600160a01b0360406000205416610458811515611beb565b90600182811c92168015611c88575b6020831014611c7257565b634e487b7160e01b600052602260045260246000fd5b91607f1691611c67565b9060405191826000825492611ca684611c58565b908184526001948581169081600014611d135750600114611cd0575b505061058d92500383611520565b9093915060005260209081600020936000915b818310611cfb57505061058d93508201013880611cc2565b85548884018501529485019487945091830191611ce3565b91505061058d94506020925060ff191682840152151560051b8201013880611cc2565b15611d3d57565b608460405162461bcd60e51b815260206004820152603d60248201527f4552433732313a20617070726f76652063616c6c6572206973206e6f7420746f60448201527f6b656e206f776e6572206f7220617070726f76656420666f7220616c6c0000006064820152fd5b611dcf611dca8260005260996020526001600160a01b0360406000205416151590565b611beb565b600052609b6020526001600160a01b036040600020541690565b15611df057565b608460405162461bcd60e51b815260206004820152602d60248201527f4552433732313a2063616c6c6572206973206e6f7420746f6b656e206f776e6560448201527f72206f7220617070726f766564000000000000000000000000000000000000006064820152fd5b604051906020820182811067ffffffffffffffff821117611e7f575b60405260008252565b611e87611494565b611e76565b90611eb0939291611ea06109c68433611f22565b611eab838383612014565b61227f565b15611eb757565b60405162461bcd60e51b815260206004820152603260248201527f4552433732313a207472616e7366657220746f206e6f6e20455243373231526560448201527f63656976657220696d706c656d656e74657200000000000000000000000000006064820152608490fd5b6001600160a01b0380611f3484611c36565b169281831692848414948515611f6a575b50508315611f54575b50505090565b611f6091929350611da7565b1614388080611f4e565b60ff92955090611f9991600052609c6020526040600020906001600160a01b0316600052602052604060002090565b5416923880611f45565b15611faa57565b608460405162461bcd60e51b815260206004820152602560248201527f4552433732313a207472616e736665722066726f6d20696e636f72726563742060448201527f6f776e65720000000000000000000000000000000000000000000000000000006064820152fd5b6120389061202184611c36565b6001600160a01b0382811693909182168414611fa3565b831692831561212b576120a98261205387846121049661247c565b612069856120636110ba8a611c36565b14611fa3565b61209061208088600052609b602052604060002090565b6001600160a01b03198154169055565b6001600160a01b0316600052609a602052604060002090565b60001981540190556120ce816001600160a01b0316600052609a602052604060002090565b600181540190556120e9856000526099602052604060002090565b906001600160a01b03166001600160a01b0319825416179055565b7fddf252ad1be2c89b69c2b068fc378daa952ba7f163c4a11628f55a4df523b3ef600080a4565b608460405162461bcd60e51b8152602060048201526024808201527f4552433732313a207472616e7366657220746f20746865207a65726f2061646460448201527f72657373000000000000000000000000000000000000000000000000000000006064820152fd5b81600052609b6020526121c1816040600020906001600160a01b03166001600160a01b0319825416179055565b6001600160a01b03806121d384611c36565b169116907f8c5be1e5ebec7d5bd14f71427d1e84f3dd0314c0f7b2291e5b200ac8c7c3b925600080a4565b9081602091031261000e5751610458816102c4565b909261045894936080936001600160a01b03809216845216602083015260408201528160608201520190610422565b506040513d6000823e3d90fd5b3d1561227a573d9061226082611591565b9161226e6040519384611520565b82523d6000602084013e565b606090565b92909190823b156123bc576122d39260209260006001600160a01b036040518097819682957f150b7a02000000000000000000000000000000000000000000000000000000009b8c85523360048601612213565b0393165af16000918161238c575b50612366576122ee61224f565b805190816123615760405162461bcd60e51b815260206004820152603260248201527f4552433732313a207472616e7366657220746f206e6f6e20455243373231526560448201527f63656976657220696d706c656d656e74657200000000000000000000000000006064820152608490fd5b602001fd5b7fffffffff00000000000000000000000000000000000000000000000000000000161490565b6123ae91925060203d81116123b5575b6123a68183611520565b8101906121fe565b90386122e1565b503d61239c565b50505050600190565b6123ce81611b61565b8210156123fb576001600160a01b031660005260c960205260406000209060005260205260406000205490565b608460405162461bcd60e51b815260206004820152602b60248201527f455243373231456e756d657261626c653a206f776e657220696e646578206f7560448201527f74206f6620626f756e64730000000000000000000000000000000000000000006064820152fd5b50634e487b7160e01b600052603260045260246000fd5b9091906001600160a01b0380821691826124bf575061249a8361262b565b8316806124ad57505061058d91506126bb565b036124b6575050565b61058d916125a8565b81851683036124cf575b5061249a565b6124d881611b61565b600019810190811161259b575b61253060009286845260ca6020526040842054838103612541575b50836125168860005260ca602052604060002090565b556001600160a01b031660005260c9602052604060002090565b9082526020526040812055386124c9565b86855260c9602052604085208486526020526125946040862054612578846001600160a01b031660005260c9602052604060002090565b83885260205280604088205560005260ca602052604060002090565b5538612500565b6125a36126a4565b6124e5565b6040906125b481611b61565b926001600160a01b0360009216825260c96020528282208483526020528083832055815260ca6020522055565b8054906801000000000000000082101561261e575b60018201808255821015612611575b60005260206000200155565b612619612465565b612605565b612626611494565b6125f6565b60cb548160005260cc6020528060406000205568010000000000000000811015612697575b600181018060cb5581101561268a575b60cb6000527fa7ce836d032b2bf62b7e2097a8e0a6d8aeb35405ad15271e96d3b0188a1d06fb0155565b612692612465565b612660565b61269f611494565b612650565b50634e487b7160e01b600052601160045260246000fd5b60cb805460001992908381018181116127c4575b61276b600093849281845260cc6020528460408520549110156127b7575b86845261275a7fa7ce836d032b2bf62b7e2097a8e0a6d8aeb35405ad15271e96d3b0188a1d06fa9586810154908310156127aa575b88865280837fa7ce836d032b2bf62b7e2097a8e0a6d8aeb35405ad15271e96d3b0188a1d06fb015560005260cc602052604060002090565b5560005260cc602052604060002090565b5582549384156127965784019380851015612789575b838352015555565b612791612465565b612781565b602483634e487b7160e01b81526031600452fd5b6127b2612465565b612722565b6127bf612465565b6126ed565b6127cc6126a4565b6126cf565b156127d857565b608460405162461bcd60e51b815260206004820152602e60248201527f496e697469616c697a61626c653a20636f6e747261637420697320616c72656160448201527f647920696e697469616c697a65640000000000000000000000000000000000006064820152fd5b906001600160a01b03906001600160a01b031992826101009116848254161790558161010191168382541617905561010292169082541617905561289660ff60005460081c1661289181612945565b612945565b61289f33611b19565b6129146040516128ae816114e8565b600881527f457865546f6b656e0000000000000000000000000000000000000000000000006020820152604051906128e5826114e8565b600382527f455845000000000000000000000000000000000000000000000000000000000060208301526129b6565b61058d6129296033546001600160a01b031690565b6001600160a01b03166001600160a01b031960fb54161760fb55565b1561294c57565b608460405162461bcd60e51b815260206004820152602b60248201527f496e697469616c697a61626c653a20636f6e7472616374206973206e6f74206960448201527f6e697469616c697a696e670000000000000000000000000000000000000000006064820152fd5b906129cc60ff60005460081c1661289181612945565b815167ffffffffffffffff8111612ac7575b6129f2816129ed609754611c58565b612ad4565b602080601f8311600114612a345750819061058d94600092612a29575b50508160011b916000199060031b1c191617609755612c0a565b015190503880612a0f565b919293601f198416612a6860976000527f354a83ed9988f79f6038d4c7a7dadbad8af32f4ad6df893e0e5807a1b1944ff990565b936000905b828210612aaf57505091600193918561058d97969410612a96575b505050811b01609755612c0a565b015160001960f88460031b161c19169055388080612a88565b80600186978294978701518155019601940190612a6d565b612acf611494565b6129de565b601f8111612ae0575050565b600090609782527f354a83ed9988f79f6038d4c7a7dadbad8af32f4ad6df893e0e5807a1b1944ff9906020601f850160051c83019410612b3b575b601f0160051c01915b828110612b3057505050565b818155600101612b24565b9092508290612b1b565b601f8111612b51575050565b600090609882527f2237a976fa961f5921fd19f2b03c925c725d77b20ce8f790c19709c03de4d814906020601f850160051c83019410612bac575b601f0160051c01915b828110612ba157505050565b818155600101612b95565b9092508290612b8c565b90601f8111612bc457505050565b600091825260208220906020601f850160051c83019410612c00575b601f0160051c01915b828110612bf557505050565b818155600101612be9565b9092508290612be0565b90815167ffffffffffffffff8111612cf5575b612c3181612c2c609854611c58565b612b45565b602080601f8311600114612c6d5750819293600092612c62575b50508160011b916000199060031b1c191617609855565b015190503880612c4b565b90601f19831694612ca060986000527f2237a976fa961f5921fd19f2b03c925c725d77b20ce8f790c19709c03de4d81490565b926000905b878210612cdd575050836001959610612cc4575b505050811b01609855565b015160001960f88460031b161c19169055388080612cb9565b80600185968294968601518155019501930190612ca5565b612cfd611494565b612c1d565b15612d0957565b606460405162461bcd60e51b815260206004820152600a60248201527f6f6e6c792061646d696e000000000000000000000000000000000000000000006044820152fd5b15612d5457565b606460405162461bcd60e51b815260206004820152601060248201527f746f6b656e206e6f7420657869737473000000000000000000000000000000006044820152fd5b60209067ffffffffffffffff8111612db2575b60051b0190565b612dba611494565b612dab565b60405190612dcc82611504565b600282526040366020840137565b6001906000198114612dea570190565b612df26126a4565b0190565b602090805115612e04570190565b612df2612465565b604090805160011015612e04570190565b606090805160021015612e04570190565b6020918151811015612e43575b60051b010190565b612e4b612465565b612e3b565b63ffffffff81160361000e57565b359061058d82612e50565b600e111561000e57565b929190612e7f81612d98565b91604091612e8f83519485611520565b839581855260208095019160051b81019383851161000e5781925b858410612eba5750505050505050565b67ffffffffffffffff843581811161000e5784019160808388031261000e578351612ee4816114cc565b833592831161000e5783612efd898c96958796016115bc565b8252838101358483015285810135612f14816106a3565b8683015260608091013590612f2882612e69565b820152815201930192612eaa565b60405190612f43826114e8565b60606020838281520152565b604051906080820182811067ffffffffffffffff821117612f86575b60405260006060838181528260208201528260408201520152565b612f8e611494565b612f6b565b6040908151612fa1816114e8565b60018152809160005b602080821015612fde57855160209291612fc3826114e8565b60608252612fcf612f4f565b81830152828601015201612faa565b505091925050565b604090815191612ff583611504565b600283528260005b82811061300957505050565b6020908351613017816114e8565b60608152613023612f4f565b8184015283820183015201612ffd565b9092919261304081611591565b9161304e6040519384611520565b82948284528282011161000e57602061058d9301906103ff565b60208183031261000e5780519067ffffffffffffffff821161000e57019080601f8301121561000e57815161045892602001613033565b908082519081815260208091019281808460051b8301019501936000915b8483106130cd5750505050505090565b90919293949584806130eb600193601f198682030187528a51611305565b98019301930191949392906130bd565b9190604090818101908451918382528251809152606082019060608160051b840101946020809501926000915b83831061314857505050505081610458949501519181840391015261309f565b90919293968680613183600193605f198a82030187528b519083613173835189845289840190610422565b9201519084818403910152611305565b99019301930191939290613128565b92816064946131b96000956131a5612f36565b946131ae612f93565b8652610e1586614927565b60208401526132176001600160a01b0361010054169360405197889687958695635a5c64ef60e11b875260406004880152816044880152838701378481018201899052601f01601f19168401848103606001602486015201906130fb565b03915afa908115613241575b60009161322e575090565b610458913d8091833e610e838183611520565b613249612242565b613223565b903590601e198136030182121561000e570180359067ffffffffffffffff821161000e5760200191813603831361000e57565b600a9060fe548110156132bd575b60fe600052027f54075df80ec1ae6ac9100e1fd0ebf3246c17f5c933137af392011f4c5f61513a0190600090565b6132c5612465565b61328f565b3561045881610571565b90929167ffffffffffffffff811161339d575b6132fb816132f58454611c58565b84612bb6565b6000601f8211600114613335578192939460009261332a575b50508160011b916000199060031b1c1916179055565b013590503880613314565b601f1982169461334a84600052602060002090565b91805b87811061338557508360019596971061336b575b505050811b019055565b0135600019600384901b60f8161c19169055388080613361565b9092602060018192868601358155019401910161334d565b6133a5611494565b6132e7565b3561045881612e50565b6133d860fe5468010000000000000000811015613549575b6001810160fe55613281565b91909161353357613512610140600961058d946134136133f7866132ca565b82906001600160a01b03166001600160a01b0319825416179055565b61342d613423602087018761324e565b90600184016132d4565b61344761343d604087018761324e565b90600284016132d4565b613461613457606087018761324e565b90600384016132d4565b61347b613471608087018761324e565b90600484016132d4565b61349561348b60a087018761324e565b90600584016132d4565b6134af6134a560c087018761324e565b90600684016132d4565b6134c96134bf60e087018761324e565b90600784016132d4565b6134e46134da61010087018761324e565b90600884016132d4565b019261350c6134f661012083016133aa565b855463ffffffff191663ffffffff909116178555565b016133aa565b67ffffffff0000000082549160201b169067ffffffff000000001916179055565b634e487b7160e01b600052600060045260246000fd5b613551611494565b6133cc565b6060909391929360408101938152826020946040868401525201929160005b828110613583575050505090565b90919293828060019263ffffffff883561359c81612e50565b16815201950193929101613575565b90929192831161000e579190565b3590602081106135c7575090565b6000199060200360031b1b1690565b156135dd57565b606460405162461bcd60e51b815260206004820152601c60248201527f4552433732313a20746f6b656e20616c7265616479206d696e746564000000006044820152fd5b6001600160a01b0381169081156136f5576136cd9061365f6136598560005260996020526001600160a01b0360406000205416151590565b156135d6565b6136688461262b565b61367284826125a8565b6136956136598560005260996020526001600160a01b0360406000205416151590565b6136b2816001600160a01b0316600052609a602052604060002090565b600181540190556120e9846000526099602052604060002090565b60007fddf252ad1be2c89b69c2b068fc378daa952ba7f163c4a11628f55a4df523b3ef8180a4565b606460405162461bcd60e51b815260206004820152602060248201527f4552433732313a206d696e7420746f20746865207a65726f20616464726573736044820152fd5b1561374057565b606460405162461bcd60e51b815260206004820152600e60248201527f746f6b656e2064697361626c65640000000000000000000000000000000000006044820152fd5b519061058d826106a3565b519061058d82612e69565b9060208282031261000e57815167ffffffffffffffff9283821161000e57019060808282031261000e57604051926137d1846114cc565b825190811161000e5782019181601f8401121561000e576137fd60609284602061382096519101613033565b84526020810151602085015261381560408201613784565b60408501520161378f565b606082015290565b909161383f61045893604084526040840190610422565b9160208184039101526130fb565b90612df2602092828151948592016103ff565b9061386b90826145da565b606082015190608083015192604081015190602081015161388b90613faa565b905161389f906001600160a01b0316613ed0565b6138a7613e3b565b916138b0613c8e565b6040517f7b226e616d65223a2200000000000000000000000000000000000000000000006020820152978897919591602989016138ec9161384d565b7f222c226465736372697074696f6e223a22000000000000000000000000000000815260110161391b9161384d565b7f222c2261747472696275746573223a5b0000000000000000000000000000000081526010017f7b2274726169745f74797065223a20226c616e67222c2276616c7565223a22008152601f016139709161384d565b7f227d2c7b2274726169745f74797065223a2022636f6465222c2276616c75652281527f3a2200000000000000000000000000000000000000000000000000000000000060208201526022016139c59161384d565b7f227d2c7b2274726169745f74797065223a202263726561746f72222c2276616c81527f7565223a220000000000000000000000000000000000000000000000000000006020820152602501613a1a9161384d565b7f227d2c7b2274726169745f74797065223a20226f776e6572222c2276616c756581527f223a2200000000000000000000000000000000000000000000000000000000006020820152602301613a6f9161384d565b7f227d2c7b2274726169745f74797065223a20226578656375746564436f756e7481527f222c2276616c7565223a220000000000000000000000000000000000000000006020820152602b01613ac49161384d565b7f227d5d2c22696d616765223a22000000000000000000000000000000000000008152600d01613af39161384d565b7f227d00000000000000000000000000000000000000000000000000000000000081526002010390601f19918281018252613b2e9082611520565b613b3790613faa565b6040517f646174613a6170706c69636174696f6e2f6a736f6e3b6261736536342c000000602082015291908290603d8201613b719161384d565b0390810182526104589082611520565b919091613b8d81614348565b906060810151926080820151946040830151926020810151613bae90613faa565b9051613bc2906001600160a01b0316613ed0565b916001600160a01b0316613bd590613ed0565b926138b090613cc7565b60405190613bec82611504565b602a82526040366020840137565b90613c0482611591565b613c116040519182611520565b8281528092613c22601f1991611591565b0190602036910137565b9060028201809211613c3a57565b61058d6126a4565b9060018201809211613c3a57565b9060208201809211613c3a57565b602190805160011015612e04570190565b906020918051821015613c8157010190565b613c89612465565b010190565b604051613c9a816114e8565b600181527f3000000000000000000000000000000000000000000000000000000000000000602082015290565b8015613d7b576000818181805b613d635750613ce281613bfa565b935b613cee5750505090565b6000198101908111613d56575b8091600a91613d407fff0000000000000000000000000000000000000000000000000000000000000060308585068101809111613d49575b60f81b16861a9187613c6f565b53049081613ce4565b613d516126a4565b613d33565b613d5e6126a4565b613cfb565b9150613d70600a91612dda565b910480849291613cd4565b50604051613c9a816114e8565b908160021b917f3fffffffffffffffffffffffffffffffffffffffffffffffffffffffffffffff811603613c3a57565b90670de0b6b3a764000091828102928184041490151715613c3a57565b8015613de3575b6000190190565b613deb6126a4565b613ddc565b15613df757565b606460405162461bcd60e51b815260206004820152602060248201527f537472696e67733a20686578206c656e67746820696e73756666696369656e746044820152fd5b6000613e45613bdf565b906030613e5183612df6565b536078613e5d83613c5e565b536029905b60018211613e7557610458915015613df0565b807f3031323334353637383961626364656600000000000000000000000000000000600f613ebd93166010811015613ec3575b1a613eb38486613c6f565b5360041c91613dd5565b90613e62565b613ecb612465565b613ea8565b613ed8613bdf565b906030613ee483612df6565b536078613ef083613c5e565b536029905b60018211613f0857610458915015613df0565b807f3031323334353637383961626364656600000000000000000000000000000000600f613f4593166010811015613ec3571a613eb38486613c6f565b90613ef5565b60405190613f5882611504565b604082527f6768696a6b6c6d6e6f707172737475767778797a303132333435363738392b2f6040837f4142434445464748494a4b4c4d4e4f505152535455565758595a61626364656660208201520152565b8051156140c957613fb9613f4b565b613fd5613fd0613fc98451613c2c565b6003900490565b613d88565b91613fe7613fe284613c50565b613bfa565b92835280815182019060208501935b82821061406d5750505060039051068060011461404257600214614018575090565b7f3d0000000000000000000000000000000000000000000000000000000000000090600019015290565b507f3d3d00000000000000000000000000000000000000000000000000000000000090600119015290565b90919360049060038094019384516001603f81818460121c16880101519260f893841b8652828282600c1c1689010151841b8387015282828260061c1689010151841b60028701521686010151901b9082015201939190613ff6565b50610458611e5a565b604051906140df826114e8565b600a82527f646174613a696d616765000000000000000000000000000000000000000000006020830152565b60405190614118826114e8565b600482527f6e616d65000000000000000000000000000000000000000000000000000000006020830152565b60405190614151826114e8565b600b82527f6465736372697074696f6e0000000000000000000000000000000000000000006020830152565b6040519061418a826114e8565b600482527f636f6465000000000000000000000000000000000000000000000000000000006020830152565b604051906141c3826114e8565b600682527f726573756c7400000000000000000000000000000000000000000000000000006020830152565b6000915b6002831061420057505050565b60019063ffffffff835116815260208091019201920191906141f3565b9291606061058d9261015e80875260208701526080604087015261424f815161014060808901526101c0880190610422565b6142b261429c614289614275602086015194607f19958c60a08882850301910152610422565b6040860151858c83030160c08d0152610422565b85850151848b83030160e08c0152610422565b6080840151610100938a830301848b0152610422565b916142c660a08201516101208a01906141ef565b60c081015161016089015260e081015161018089015201516101a08701529401906001600160a01b03169052565b9061058d603a60405180947f646174613a696d6167652f7376672b786d6c3b6261736536342c000000000000602083015261433881518092602086860191016103ff565b810103601a810185520183611520565b60a081019061436861435a8351614d14565b6143626140d2565b90614d94565b1561437257505190565b61447d6000610458936144ac9360609061438f835161436261410b565b84146144d75761020091506060810151925b519060c08101519160e08201516101009384840151926144006143f36101406143c8611584565b976143e86143de61012083015163ffffffff1690565b63ffffffff168a52565b015163ffffffff1690565b63ffffffff166020870152565b614408611563565b978852602088015260408701526060860152608085015260a084015261015e8060c085015260e0840152820152614448610101546001600160a01b031690565b9060405193849283927f58c92ec00000000000000000000000000000000000000000000000000000000084526004840161421d565b038173__$5b562c355aff420f155d99b44c1e69fd68$__5af49081156144ca575b6000916144b1575b50613faa565b6142f4565b6144c4913d8091833e610e838183611520565b386144a6565b6144d2612242565b61449e565b6144e48351614362614144565b84146144fa5761020091506080810151926143a1565b614507835161436261417d565b841461451d5761020091506020810151926143a1565b61452a83516143626141b6565b614539575b61020091926143a1565b6145998461020093614549612f36565b906020820152614557612fe6565b815261456281614b0f565b6145786110ba610100546001600160a01b031690565b6020850151604051809581948293635a5c64ef60e11b845260048401613828565b03915afa9081156145cd575b85916145b4575b50915061452f565b6145c7913d8091833e610e838183611520565b386145ac565b6145d5612242565b6145a5565b9060a08201916145ed61435a8451614d14565b156145f85750505190565b6000610458936144ac9361447d93606091614616845161436261410b565b851461464f57506102009150606081015192519060c08101519160e08201516101009384840151926144006143f36101406143c8611584565b61465c8451614362614144565b8514614673575061020091506080810151926143a1565b614680845161436261417d565b8514614697575061020091506020810151926143a1565b6146a484516143626141b6565b6146b4575b5061020091926143a1565b6102009250846146c691614549612f36565b03915afa9081156146f9575b85916146e0575b50916146a9565b6146f3913d8091833e610e838183611520565b386146d9565b614701612242565b6146d2565b6040519060a0820182811067ffffffffffffffff821117614745575b604052600060808360608152606060208201528260408201528260608201520152565b61474d611494565b614722565b6040519061475f826114e8565b600b82527f626c6f636b4e756d6265720000000000000000000000000000000000000000006020830152565b60405190614798826114e8565b600982527f74696d657374616d7000000000000000000000000000000000000000000000006020830152565b604051906147d1826114e8565b6000602083606081520152565b604051906080820182811067ffffffffffffffff821117614828575b604052600382528160005b60608110614811575050565b60209061481c614706565b82828501015201614805565b614830611494565b6147fa565b602091828252606092838301918051946040938484870152865180915260809182870185848460051b8a01019901936000925b84841061487d57505050505050015191015290565b90919293949987808a6148de6001948f8f89918291607f19908503018c52516148c16148b1825160a0808852870190610422565b888301518682038a880152610422565b9580820151908501528981015115158a85015201519101906112e2565b9c01940194019294939190614868565b604051906148fb826114e8565b600d82527f657468657265756d426c6f636b000000000000000000000000000000000000006020830152565b90614979614933614706565b9161493c614752565b6020908082860152818151910120906040918286015261495f6080860160049052565b61496843613db8565b825182810191825294859160200190565b039361498d601f1995868101835282611520565b85526001606086015261499e614706565b956149a761478b565b8083890152828151910120838801526149c36080880160049052565b6149e36149ef6149d242613db8565b855185810191825292839160200190565b03878101835282611520565b875260016060880152614a00614706565b6007608082015294614a10612dbf565b9560005b8751811015614a395780614a2a614a3492613c42565b610c21828b612e2e565b614a14565b50614abe614b0a9699614aab879a879a614a6f614ae199614a63614aed9a9c519384928301610b62565b03888101835282611520565b8552614a98614a7c6147c4565b95614a856147de565b90818852614a9282612df6565b52612df6565b50845190614aa582612e0c565b52612e0c565b50825190614ab882612e1d565b52612e1d565b50600087820152614acd612f4f565b600760608201529751938491888301614835565b03908101835282611520565b8452614af98151612df6565b51614b026148ee565b905251612df6565b510152565b90614b1b614933614706565b0393614b2f601f1995868101835282611520565b855260016060860152614b40614706565b95614b4961478b565b808389015282815191012083880152614b656080880160049052565b6149e3614b746149d242613db8565b875260016060880152614b85614706565b6007608082015294614b95612dbf565b9560005b8751811015614a395780614a2a614baf92613c42565b614b99565b60405190610160820182811067ffffffffffffffff821117614c19575b604052600061014083828152606080602083015280604083015280808301528060808301528060a08301528060c08301528060e0830152610100820152826101208201520152565b614c21611494565b614bd1565b614c3c90614c378160fe5411612d4d565b613281565b506104586009614c4a611542565b92614c6c614c5f82546001600160a01b031690565b6001600160a01b03168552565b614c7860018201611c92565b6020850152614c8960028201611c92565b6040850152614c9a60038201611c92565b6060850152614cab60048201611c92565b6080850152614cbc60058201611c92565b60a0850152614ccd60068201611c92565b60c0850152614cde60078201611c92565b60e0850152614cef60088201611c92565b610100850152015463ffffffff80821661012085015260209190911c16610140830152565b600a80825110614d905760405191614d2b836114e8565b81835260203681850137600090815b838110614d48575050505090565b807fff00000000000000000000000000000000000000000000000000000000000000614d77614d8b9385613c6f565b5116841a614d858288613c6f565b53612dda565b614d3a565b5090565b919060009280519082518214614da957505050565b90919350600193601f60059301831c9260005b8685821016614dcc575050505050565b80821b8381016020908101519186010151149650600101614dbc56fea264697066735822122041ab3676dc6b2498c8094cdbf62df9f595de48310edbce2a579dc206982ec94464736f6c63430008110033",
    "linkReferences": {
        "contracts/util/TokenSvg.sol": {
            "TokenSvg": [
                {
                    "length": 20,
                    "start": 17565
                }
            ]
        }
    },
    "deployedLinkReferences": {
        "contracts/util/TokenSvg.sol": {
            "TokenSvg": [
                {
                    "length": 20,
                    "start": 17537
                }
            ]
        }
    }
}