{
  "_format": "hh-sol-artifact-1",
  "contractName": "ExeToken",
  "sourceName": "contracts/token/ExeToken.sol",
  "abi": [
    {
      "anonymous": false,
      "inputs": [
        {
          "indexed": true,
          "internalType": "address",
          "name": "owner",
          "type": "address"
        },
        {
          "indexed": true,
          "internalType": "address",
          "name": "approved",
          "type": "address"
        },
        {
          "indexed": true,
          "internalType": "uint256",
          "name": "tokenId",
          "type": "uint256"
        }
      ],
      "name": "Approval",
      "type": "event"
    },
    {
      "anonymous": false,
      "inputs": [
        {
          "indexed": true,
          "internalType": "address",
          "name": "owner",
          "type": "address"
        },
        {
          "indexed": true,
          "internalType": "address",
          "name": "operator",
          "type": "address"
        },
        {
          "indexed": false,
          "internalType": "bool",
          "name": "approved",
          "type": "bool"
        }
      ],
      "name": "ApprovalForAll",
      "type": "event"
    },
    {
      "anonymous": false,
      "inputs": [
        {
          "indexed": true,
          "internalType": "uint256",
          "name": "tokenId",
          "type": "uint256"
        },
        {
          "indexed": true,
          "internalType": "address",
          "name": "creator",
          "type": "address"
        },
        {
          "indexed": true,
          "internalType": "address",
          "name": "owner",
          "type": "address"
        },
        {
          "indexed": false,
          "internalType": "uint256",
          "name": "timestamp",
          "type": "uint256"
        }
      ],
      "name": "Executed",
      "type": "event"
    },
    {
      "anonymous": false,
      "inputs": [
        {
          "indexed": false,
          "internalType": "uint8",
          "name": "version",
          "type": "uint8"
        }
      ],
      "name": "Initialized",
      "type": "event"
    },
    {
      "anonymous": false,
      "inputs": [
        {
          "indexed": true,
          "internalType": "address",
          "name": "creator",
          "type": "address"
        },
        {
          "indexed": true,
          "internalType": "uint256",
          "name": "tokenId",
          "type": "uint256"
        },
        {
          "indexed": true,
          "internalType": "bytes32",
          "name": "name",
          "type": "bytes32"
        }
      ],
      "name": "Minted",
      "type": "event"
    },
    {
      "anonymous": false,
      "inputs": [
        {
          "indexed": true,
          "internalType": "address",
          "name": "previousOwner",
          "type": "address"
        },
        {
          "indexed": true,
          "internalType": "address",
          "name": "newOwner",
          "type": "address"
        }
      ],
      "name": "OwnershipTransferred",
      "type": "event"
    },
    {
      "anonymous": false,
      "inputs": [
        {
          "indexed": true,
          "internalType": "uint256",
          "name": "tokenId",
          "type": "uint256"
        },
        {
          "indexed": true,
          "internalType": "bool",
          "name": "disabled",
          "type": "bool"
        }
      ],
      "name": "TokenDisabled",
      "type": "event"
    },
    {
      "anonymous": false,
      "inputs": [
        {
          "indexed": true,
          "internalType": "address",
          "name": "from",
          "type": "address"
        },
        {
          "indexed": true,
          "internalType": "address",
          "name": "to",
          "type": "address"
        },
        {
          "indexed": true,
          "internalType": "uint256",
          "name": "tokenId",
          "type": "uint256"
        }
      ],
      "name": "Transfer",
      "type": "event"
    },
    {
      "inputs": [],
      "name": "admin",
      "outputs": [
        {
          "internalType": "address",
          "name": "",
          "type": "address"
        }
      ],
      "stateMutability": "view",
      "type": "function"
    },
    {
      "inputs": [
        {
          "internalType": "address",
          "name": "to",
          "type": "address"
        },
        {
          "internalType": "uint256",
          "name": "tokenId",
          "type": "uint256"
        }
      ],
      "name": "approve",
      "outputs": [],
      "stateMutability": "nonpayable",
      "type": "function"
    },
    {
      "inputs": [
        {
          "internalType": "address",
          "name": "owner",
          "type": "address"
        }
      ],
      "name": "balanceOf",
      "outputs": [
        {
          "internalType": "uint256",
          "name": "",
          "type": "uint256"
        }
      ],
      "stateMutability": "view",
      "type": "function"
    },
    {
      "inputs": [],
      "name": "categoryStore",
      "outputs": [
        {
          "internalType": "contract ITokenCategoryStore",
          "name": "",
          "type": "address"
        }
      ],
      "stateMutability": "view",
      "type": "function"
    },
    {
      "inputs": [
        {
          "internalType": "uint256",
          "name": "_tokenId",
          "type": "uint256"
        },
        {
          "components": [
            {
              "internalType": "bytes",
              "name": "value",
              "type": "bytes"
            },
            {
              "internalType": "uint256",
              "name": "identifierIndex",
              "type": "uint256"
            },
            {
              "internalType": "bool",
              "name": "numberSign",
              "type": "bool"
            },
            {
              "internalType": "enum IJSInterpreter.JSValueType",
              "name": "valueType",
              "type": "uint8"
            }
          ],
          "internalType": "struct IJSInterpreter.JSValue[]",
          "name": "_args",
          "type": "tuple[]"
        }
      ],
      "name": "execute",
      "outputs": [
        {
          "components": [
            {
              "internalType": "bytes",
              "name": "value",
              "type": "bytes"
            },
            {
              "internalType": "uint256",
              "name": "identifierIndex",
              "type": "uint256"
            },
            {
              "internalType": "bool",
              "name": "numberSign",
              "type": "bool"
            },
            {
              "internalType": "enum IJSInterpreter.JSValueType",
              "name": "valueType",
              "type": "uint8"
            }
          ],
          "internalType": "struct IJSInterpreter.JSValue",
          "name": "",
          "type": "tuple"
        }
      ],
      "stateMutability": "view",
      "type": "function"
    },
    {
      "inputs": [
        {
          "internalType": "uint256",
          "name": "_tokenId",
          "type": "uint256"
        },
        {
          "components": [
            {
              "internalType": "bytes",
              "name": "value",
              "type": "bytes"
            },
            {
              "internalType": "uint256",
              "name": "identifierIndex",
              "type": "uint256"
            },
            {
              "internalType": "bool",
              "name": "numberSign",
              "type": "bool"
            },
            {
              "internalType": "enum IJSInterpreter.JSValueType",
              "name": "valueType",
              "type": "uint8"
            }
          ],
          "internalType": "struct IJSInterpreter.JSValue[]",
          "name": "_args",
          "type": "tuple[]"
        }
      ],
      "name": "executeToString",
      "outputs": [
        {
          "internalType": "string",
          "name": "",
          "type": "string"
        }
      ],
      "stateMutability": "view",
      "type": "function"
    },
    {
      "inputs": [],
      "name": "fontProvider",
      "outputs": [
        {
          "internalType": "contract IFontProvider",
          "name": "",
          "type": "address"
        }
      ],
      "stateMutability": "view",
      "type": "function"
    },
    {
      "inputs": [
        {
          "internalType": "uint256",
          "name": "tokenId",
          "type": "uint256"
        }
      ],
      "name": "getApproved",
      "outputs": [
        {
          "internalType": "address",
          "name": "",
          "type": "address"
        }
      ],
      "stateMutability": "view",
      "type": "function"
    },
    {
      "inputs": [
        {
          "internalType": "uint256",
          "name": "_tokenId",
          "type": "uint256"
        }
      ],
      "name": "getExecutedCount",
      "outputs": [
        {
          "internalType": "uint256",
          "name": "",
          "type": "uint256"
        }
      ],
      "stateMutability": "view",
      "type": "function"
    },
    {
      "inputs": [
        {
          "internalType": "address",
          "name": "_creator",
          "type": "address"
        }
      ],
      "name": "getTokenIdsByCreator",
      "outputs": [
        {
          "internalType": "uint256[]",
          "name": "",
          "type": "uint256[]"
        }
      ],
      "stateMutability": "view",
      "type": "function"
    },
    {
      "inputs": [
        {
          "internalType": "address",
          "name": "_owner",
          "type": "address"
        }
      ],
      "name": "getTokenIdsByOwner",
      "outputs": [
        {
          "internalType": "uint256[]",
          "name": "",
          "type": "uint256[]"
        }
      ],
      "stateMutability": "view",
      "type": "function"
    },
    {
      "inputs": [
        {
          "internalType": "uint256",
          "name": "_tokenId",
          "type": "uint256"
        }
      ],
      "name": "incrementExecutedCount",
      "outputs": [],
      "stateMutability": "nonpayable",
      "type": "function"
    },
    {
      "inputs": [
        {
          "internalType": "contract ISnippetJS",
          "name": "_snippetJs",
          "type": "address"
        },
        {
          "internalType": "contract IFontProvider",
          "name": "_fontProvider",
          "type": "address"
        },
        {
          "internalType": "contract ITokenCategoryStore",
          "name": "_categoryStore",
          "type": "address"
        }
      ],
      "name": "initialize",
      "outputs": [],
      "stateMutability": "nonpayable",
      "type": "function"
    },
    {
      "inputs": [
        {
          "internalType": "address",
          "name": "owner",
          "type": "address"
        },
        {
          "internalType": "address",
          "name": "operator",
          "type": "address"
        }
      ],
      "name": "isApprovedForAll",
      "outputs": [
        {
          "internalType": "bool",
          "name": "",
          "type": "bool"
        }
      ],
      "stateMutability": "view",
      "type": "function"
    },
    {
      "inputs": [
        {
          "components": [
            {
              "internalType": "address",
              "name": "creator",
              "type": "address"
            },
            {
              "internalType": "string",
              "name": "code",
              "type": "string"
            },
            {
              "internalType": "string",
              "name": "lang",
              "type": "string"
            },
            {
              "internalType": "string",
              "name": "name",
              "type": "string"
            },
            {
              "internalType": "string",
              "name": "description",
              "type": "string"
            },
            {
              "internalType": "string",
              "name": "content",
              "type": "string"
            },
            {
              "internalType": "string",
              "name": "contentColor",
              "type": "string"
            },
            {
              "internalType": "string",
              "name": "contentOpacity",
              "type": "string"
            },
            {
              "internalType": "string",
              "name": "backgroundColor",
              "type": "string"
            },
            {
              "internalType": "uint32",
              "name": "contentOffsetX",
              "type": "uint32"
            },
            {
              "internalType": "uint32",
              "name": "contentOffsetY",
              "type": "uint32"
            }
          ],
          "internalType": "struct IExeToken.TokenAttributes",
          "name": "_attrs",
          "type": "tuple"
        },
        {
          "internalType": "uint32[]",
          "name": "_categories",
          "type": "uint32[]"
        }
      ],
      "name": "mint",
      "outputs": [
        {
          "internalType": "uint256",
          "name": "",
          "type": "uint256"
        }
      ],
      "stateMutability": "nonpayable",
      "type": "function"
    },
    {
      "inputs": [],
      "name": "name",
      "outputs": [
        {
          "internalType": "string",
          "name": "",
          "type": "string"
        }
      ],
      "stateMutability": "view",
      "type": "function"
    },
    {
      "inputs": [],
      "name": "owner",
      "outputs": [
        {
          "internalType": "address",
          "name": "",
          "type": "address"
        }
      ],
      "stateMutability": "view",
      "type": "function"
    },
    {
      "inputs": [
        {
          "internalType": "uint256",
          "name": "tokenId",
          "type": "uint256"
        }
      ],
      "name": "ownerOf",
      "outputs": [
        {
          "internalType": "address",
          "name": "",
          "type": "address"
        }
      ],
      "stateMutability": "view",
      "type": "function"
    },
    {
      "inputs": [
        {
          "components": [
            {
              "internalType": "address",
              "name": "creator",
              "type": "address"
            },
            {
              "internalType": "string",
              "name": "code",
              "type": "string"
            },
            {
              "internalType": "string",
              "name": "lang",
              "type": "string"
            },
            {
              "internalType": "string",
              "name": "name",
              "type": "string"
            },
            {
              "internalType": "string",
              "name": "description",
              "type": "string"
            },
            {
              "internalType": "string",
              "name": "content",
              "type": "string"
            },
            {
              "internalType": "string",
              "name": "contentColor",
              "type": "string"
            },
            {
              "internalType": "string",
              "name": "contentOpacity",
              "type": "string"
            },
            {
              "internalType": "string",
              "name": "backgroundColor",
              "type": "string"
            },
            {
              "internalType": "uint32",
              "name": "contentOffsetX",
              "type": "uint32"
            },
            {
              "internalType": "uint32",
              "name": "contentOffsetY",
              "type": "uint32"
            }
          ],
          "internalType": "struct IExeToken.TokenAttributes",
          "name": "_attrs",
          "type": "tuple"
        },
        {
          "components": [
            {
              "internalType": "bytes",
              "name": "value",
              "type": "bytes"
            },
            {
              "internalType": "uint256",
              "name": "identifierIndex",
              "type": "uint256"
            },
            {
              "internalType": "bool",
              "name": "numberSign",
              "type": "bool"
            },
            {
              "internalType": "enum IJSInterpreter.JSValueType",
              "name": "valueType",
              "type": "uint8"
            }
          ],
          "internalType": "struct IJSInterpreter.JSValue[]",
          "name": "_args",
          "type": "tuple[]"
        }
      ],
      "name": "preview",
      "outputs": [
        {
          "internalType": "string",
          "name": "",
          "type": "string"
        }
      ],
      "stateMutability": "view",
      "type": "function"
    },
    {
      "inputs": [],
      "name": "renounceOwnership",
      "outputs": [],
      "stateMutability": "nonpayable",
      "type": "function"
    },
    {
      "inputs": [
        {
          "internalType": "address",
          "name": "from",
          "type": "address"
        },
        {
          "internalType": "address",
          "name": "to",
          "type": "address"
        },
        {
          "internalType": "uint256",
          "name": "tokenId",
          "type": "uint256"
        }
      ],
      "name": "safeTransferFrom",
      "outputs": [],
      "stateMutability": "nonpayable",
      "type": "function"
    },
    {
      "inputs": [
        {
          "internalType": "address",
          "name": "from",
          "type": "address"
        },
        {
          "internalType": "address",
          "name": "to",
          "type": "address"
        },
        {
          "internalType": "uint256",
          "name": "tokenId",
          "type": "uint256"
        },
        {
          "internalType": "bytes",
          "name": "data",
          "type": "bytes"
        }
      ],
      "name": "safeTransferFrom",
      "outputs": [],
      "stateMutability": "nonpayable",
      "type": "function"
    },
    {
      "inputs": [
        {
          "internalType": "address",
          "name": "_admin",
          "type": "address"
        }
      ],
      "name": "setAdmin",
      "outputs": [],
      "stateMutability": "nonpayable",
      "type": "function"
    },
    {
      "inputs": [
        {
          "internalType": "address",
          "name": "operator",
          "type": "address"
        },
        {
          "internalType": "bool",
          "name": "approved",
          "type": "bool"
        }
      ],
      "name": "setApprovalForAll",
      "outputs": [],
      "stateMutability": "nonpayable",
      "type": "function"
    },
    {
      "inputs": [
        {
          "internalType": "contract ITokenCategoryStore",
          "name": "_categoryStore",
          "type": "address"
        }
      ],
      "name": "setCategoryStore",
      "outputs": [],
      "stateMutability": "nonpayable",
      "type": "function"
    },
    {
      "inputs": [
        {
          "internalType": "uint256",
          "name": "_tokenId",
          "type": "uint256"
        },
        {
          "internalType": "bool",
          "name": "disabled",
          "type": "bool"
        }
      ],
      "name": "setDisabled",
      "outputs": [],
      "stateMutability": "nonpayable",
      "type": "function"
    },
    {
      "inputs": [
        {
          "internalType": "contract IFontProvider",
          "name": "_fontProvider",
          "type": "address"
        }
      ],
      "name": "setFontProvider",
      "outputs": [],
      "stateMutability": "nonpayable",
      "type": "function"
    },
    {
      "inputs": [
        {
          "internalType": "contract ISnippetJS",
          "name": "_snippetJs",
          "type": "address"
        }
      ],
      "name": "setSnippetJs",
      "outputs": [],
      "stateMutability": "nonpayable",
      "type": "function"
    },
    {
      "inputs": [],
      "name": "snippetJs",
      "outputs": [
        {
          "internalType": "contract ISnippetJS",
          "name": "",
          "type": "address"
        }
      ],
      "stateMutability": "view",
      "type": "function"
    },
    {
      "inputs": [
        {
          "internalType": "bytes4",
          "name": "interfaceId",
          "type": "bytes4"
        }
      ],
      "name": "supportsInterface",
      "outputs": [
        {
          "internalType": "bool",
          "name": "",
          "type": "bool"
        }
      ],
      "stateMutability": "view",
      "type": "function"
    },
    {
      "inputs": [],
      "name": "symbol",
      "outputs": [
        {
          "internalType": "string",
          "name": "",
          "type": "string"
        }
      ],
      "stateMutability": "view",
      "type": "function"
    },
    {
      "inputs": [
        {
          "internalType": "string",
          "name": "_code",
          "type": "string"
        },
        {
          "components": [
            {
              "internalType": "bytes",
              "name": "value",
              "type": "bytes"
            },
            {
              "internalType": "uint256",
              "name": "identifierIndex",
              "type": "uint256"
            },
            {
              "internalType": "bool",
              "name": "numberSign",
              "type": "bool"
            },
            {
              "internalType": "enum IJSInterpreter.JSValueType",
              "name": "valueType",
              "type": "uint8"
            }
          ],
          "internalType": "struct IJSInterpreter.JSValue[]",
          "name": "_args",
          "type": "tuple[]"
        }
      ],
      "name": "test",
      "outputs": [
        {
          "internalType": "string",
          "name": "",
          "type": "string"
        }
      ],
      "stateMutability": "view",
      "type": "function"
    },
    {
      "inputs": [
        {
          "internalType": "uint256",
          "name": "index",
          "type": "uint256"
        }
      ],
      "name": "tokenByIndex",
      "outputs": [
        {
          "internalType": "uint256",
          "name": "",
          "type": "uint256"
        }
      ],
      "stateMutability": "view",
      "type": "function"
    },
    {
      "inputs": [
        {
          "internalType": "address",
          "name": "owner",
          "type": "address"
        },
        {
          "internalType": "uint256",
          "name": "index",
          "type": "uint256"
        }
      ],
      "name": "tokenOfOwnerByIndex",
      "outputs": [
        {
          "internalType": "uint256",
          "name": "",
          "type": "uint256"
        }
      ],
      "stateMutability": "view",
      "type": "function"
    },
    {
      "inputs": [
        {
          "internalType": "uint256",
          "name": "_tokenId",
          "type": "uint256"
        }
      ],
      "name": "tokenURI",
      "outputs": [
        {
          "internalType": "string",
          "name": "",
          "type": "string"
        }
      ],
      "stateMutability": "view",
      "type": "function"
    },
    {
      "inputs": [],
      "name": "totalSupply",
      "outputs": [
        {
          "internalType": "uint256",
          "name": "",
          "type": "uint256"
        }
      ],
      "stateMutability": "view",
      "type": "function"
    },
    {
      "inputs": [
        {
          "internalType": "address",
          "name": "from",
          "type": "address"
        },
        {
          "internalType": "address",
          "name": "to",
          "type": "address"
        },
        {
          "internalType": "uint256",
          "name": "tokenId",
          "type": "uint256"
        }
      ],
      "name": "transferFrom",
      "outputs": [],
      "stateMutability": "nonpayable",
      "type": "function"
    },
    {
      "inputs": [
        {
          "internalType": "address",
          "name": "newOwner",
          "type": "address"
        }
      ],
      "name": "transferOwnership",
      "outputs": [],
      "stateMutability": "nonpayable",
      "type": "function"
    }
  ],
  "bytecode": "0x6080806040523461001657614f4c908161001c8239f35b600080fdfe60806040526004361015610013575b600080fd5b60003560e01c806301ffc9a71461030b57806306fdde0314610302578063081812fc146102f9578063095ea7b3146102f057806311eadb85146102e757806315ea29be146102de57806318160ddd146102d55780631fd19eba146102cc57806323b872dd146102c35780632f745c59146102ba57806342842e0e146102b15780634f6ccce7146102a85780636352211e1461029f57806364fb83b1146102965780636970bb0a1461028d5780636c40ea4b14610284578063704b6c021461027b57806370a0823114610272578063715018a6146102695780637b12246b14610260578063828011911461025757806385a7185e1461024e5780638da5cb5b1461024557806395d89b411461023c578063997c96c414610233578063a22cb4651461022a578063a498f4f414610221578063b0ec0c0214610218578063b88d4fde1461020f578063c0c53b8b14610206578063c87b56dd146101fd578063ca7e89dc146101f4578063cdf41680146101eb578063e985e9c5146101e2578063ea84bbaf146101d9578063f2fde38b146101d0578063f851a440146101c75763fedd0f00146101bf57600080fd5b61000e611bc6565b5061000e611b9e565b5061000e611af6565b5061000e611acd565b5061000e611a62565b5061000e6119ee565b5061000e61198b565b5061000e61183e565b5061000e611737565b5061000e6116df565b5061000e61150d565b5061000e61142e565b5061000e6112cd565b5061000e611102565b5061000e61105a565b5061000e611032565b5061000e610f7a565b5061000e610e8b565b5061000e610dd2565b5061000e610d75565b5061000e610d4d565b5061000e610d08565b5061000e610cdf565b5061000e610c50565b5061000e610bda565b5061000e610bbb565b5061000e610aff565b5061000e610ab7565b5061000e610a83565b5061000e610a59565b5061000e6108c6565b5061000e610829565b5061000e610760565b5061000e6106f3565b5061000e6105df565b5061000e610591565b5061000e6104ab565b5061000e61033e565b7fffffffff0000000000000000000000000000000000000000000000000000000081160361000e57565b503461000e57602036600319011261000e5760207fffffffff0000000000000000000000000000000000000000000000000000000060043561037f81610314565b167f780e9d630000000000000000000000000000000000000000000000000000000081149081156103b6575b506040519015158152f35b7f80ac58cd0000000000000000000000000000000000000000000000000000000081149150811561041a575b81156103f0575b50386103ab565b7f01ffc9a700000000000000000000000000000000000000000000000000000000915014386103e9565b7f5b5e139f00000000000000000000000000000000000000000000000000000000811491506103e2565b600091031261000e57565b60005b8381106104625750506000910152565b8181015183820152602001610452565b9060209161048b8151809281855285808601910161044f565b601f01601f1916010190565b9060206104a8928181520190610472565b90565b503461000e5760008060031936011261058e5760405190806097546104cf81611d86565b808552916001918083169081156105645750600114610509575b610505856104f9818703826115fc565b60405191829182610497565b0390f35b9250609783527f354a83ed9988f79f6038d4c7a7dadbad8af32f4ad6df893e0e5807a1b1944ff95b82841061054c5750505081016020016104f9826105056104e9565b80546020858701810191909152909301928101610531565b869550610505969350602092506104f994915060ff191682840152151560051b82010192936104e9565b80fd5b503461000e57602036600319011261000e5760206105b0600435611ed5565b6001600160a01b0360405191168152f35b6001600160a01b0381160361000e57565b35906105dd826105c1565b565b503461000e57604036600319011261000e576004356105fd816105c1565b60243561060981611d64565b916001600160a01b0380841680918316146106895761063b9361063691331490811561063d575b50611e64565b6122c2565b005b610683915061067c9061066433916001600160a01b0316600052609c602052604060002090565b906001600160a01b0316600052602052604060002090565b5460ff1690565b38610630565b608460405162461bcd60e51b815260206004820152602160248201527f4552433732313a20617070726f76616c20746f2063757272656e74206f776e6560448201527f72000000000000000000000000000000000000000000000000000000000000006064820152fd5b503461000e57602036600319011261000e57600435610711816105c1565b6001600160a01b03806033541633148015610749575b61073090612e30565b61010291166001600160a01b0319825416179055600080f35b5060fb5481163314610727565b8015150361000e57565b503461000e57604036600319011261000e5760243560043561078182610756565b6107c06001600160a01b038060335416331490818215928361081c575b6107a790612e30565b6107b48560fe5411612e7b565b9161080e575b50612e30565b60009181835260ff6020526107e481604085209060ff801983541691151516179055565b1515907f13723d113cacd273de1c6a40fd31f530c1868b6bf42f5833f70350ff78d79ad28380a380f35b60fb541633149050386107ba565b5060fb548216331461079e565b503461000e57600036600319011261000e57602060cb54604051908152f35b9181601f8401121561000e5782359167ffffffffffffffff831161000e576020808501948460051b01011161000e57565b9060031960408184011261000e5760043567ffffffffffffffff9182821161000e5761016090828603011261000e576004019260243591821161000e576108c291600401610848565b9091565b503461000e576108d536610879565b906101608336031261000e576108e961161e565b906108f3846105d2565b825267ffffffffffffffff90602085013582811161000e576109189036908701611698565b6020840152604085013582811161000e576109369036908701611698565b6040840152606085013582811161000e576109549036908701611698565b6060840152608085013582811161000e576109729036908701611698565b608084015260a085013582811161000e576109909036908701611698565b60a084015260c085013582811161000e576109ae9036908701611698565b60c084015260e085013582811161000e576109cc9036908701611698565b60e0840152610100938486013592831161000e57610505956104f9956109f8610a279536908401611698565b90860152610120610a0a818301612f8c565b90860152610a1c610140809201612f8c565b908501523691612fa1565b9061398e565b606090600319011261000e57600435610a45816105c1565b90602435610a52816105c1565b9060443590565b503461000e5761063b610a6b36610a2d565b91610a7e610a798433612050565b611f17565b612142565b503461000e57604036600319011261000e576020610aaf600435610aa6816105c1565b602435906124f3565b604051908152f35b503461000e5761063b610ac936610a2d565b90604051926020840184811067ffffffffffffffff821117610af2575b60405260008452611fba565b610afa611570565b610ae6565b503461000e57602036600319011261000e5760043560cb54811015610b515760cb6000527fa7ce836d032b2bf62b7e2097a8e0a6d8aeb35405ad15271e96d3b0188a1d06fb0154604051908152602090f35b608460405162461bcd60e51b815260206004820152602c60248201527f455243373231456e756d657261626c653a20676c6f62616c20696e646578206f60448201527f7574206f6620626f756e647300000000000000000000000000000000000000006064820152fd5b503461000e57602036600319011261000e5760206105b0600435611d64565b503461000e57602036600319011261000e57600435610bfc8160fe5411612e7b565b6000526101036020526020604060002054604051908152f35b6020908160408183019282815285518094520193019160005b828110610c3c575050505090565b835185529381019392810192600101610c2e565b503461000e57602036600319011261000e57600435610c6e816105c1565b610c7781611c8f565b610c8081612ec6565b91610c8e60405193846115fc565b818352601f19610c9d83612ec6565b0136602085013760005b828110610cbc57604051806105058682610c15565b80610cca610cda92846124f3565b610cd48287612f5c565b52612f08565b610ca7565b503461000e57600036600319011261000e5760206001600160a01b036101015416604051908152f35b503461000e57602036600319011261000e576001600160a01b03600435610d2e816105c1565b610d36611bef565b166001600160a01b031960fb54161760fb55600080f35b503461000e57602036600319011261000e576020610aaf600435610d70816105c1565b611c8f565b503461000e5760008060031936011261058e57610d90611bef565b806001600160a01b036033546001600160a01b03198116603355167f8be0079c531659141344cd1fd0a4f28419497f9722a3daafe3b4186f6b6457e08280a380f35b503461000e5760208060031936011261000e576001600160a01b03600435610df9816105c1565b1660005260fd8152604060002090604051908181845491828152019360005281600020916000905b828210610e445761050585610e38818903826115fc565b60405191829182610c15565b835486529485019460019384019390910190610e21565b90604060031983011261000e57600435916024359067ffffffffffffffff821161000e576108c291600401610848565b503461000e57610505610f2b6000610ef8610ed4610ea836610e5b565b939180869492945260ff602052610ec660ff60408820541615613867565b610ece614ce2565b50614d54565b91610edd613064565b93610ee66130c1565b8552610ef185614a55565b3691612fa1565b602083015260206001600160a01b036101005416910151604051809581948293635a5c64ef60e11b845260048401613956565b03915afa908115610f6d575b600091610f4c575b5060405191829182610497565b610f67913d8091833e610f5f81836115fc565b810190613196565b38610f3f565b610f75612370565b610f37565b503461000e57602036600319011261000e576004356001600160a01b0390816033541633148015611025575b610faf90612e30565b610fbc8160fe5411612e7b565b806000526101036020526040600020610fd58154612f08565b9055610fdf614ce2565b5081610fea82614d54565b5116907f95474fc50506241409126520ce4036ede1ce133514e0e746730e5ab426cf8f71602061101983611d64565b604051428152951694a4005b5060fb5482163314610fa6565b503461000e57600036600319011261000e5760206001600160a01b0360335416604051908152f35b503461000e5760008060031936011261058e57604051908060985461107e81611d86565b8085529160019180831690811561056457506001146110a757610505856104f9818703826115fc565b9250609883527f2237a976fa961f5921fd19f2b03c925c725d77b20ce8f790c19709c03de4d8145b8284106110ea5750505081016020016104f9826105056104e9565b805460208587018101919091529093019281016110cf565b503461000e5761111136610879565b6060839293016020611123828561337c565b9050116112895760fc549061113f61113a83612f08565b60fc55565b611149823361374f565b611152846134e2565b6111808261117b611162876133f8565b6001600160a01b031660005260fd602052604060002090565b61270f565b6111a2611196610102546001600160a01b031690565b6001600160a01b031690565b803b1561000e5761122161121861122d93611201600061050598611227966001600160a01b039c838b604051968795869485937fc5f4121e00000000000000000000000000000000000000000000000000000000855260048501613684565b03925af1801561127c575b611263575b508761337c565b918291976133f8565b966136d9565b906136e7565b81604051958695167fc263b302aec62d29105026245f19e16f8e0137066ccd4a8bd941f716bd4096bb600080a482526020820190565b8061127061127692611587565b80610444565b38611211565b611284612370565b61120c565b606460405162461bcd60e51b815260206004820152601460248201527f6e616d65206c656e67746820757020746f2033320000000000000000000000006044820152fd5b503461000e57604036600319011261000e576004356112eb816105c1565b6024356112f781610756565b6001600160a01b0382169182331461137a57816113376113489233600052609c6020526040600020906001600160a01b0316600052602052604060002090565b9060ff801983541691151516179055565b604051901515815233907f17307eab39ab6107e8899845ad3d59bd9653f200f220920489ca2b5937696c3190602090a3005b606460405162461bcd60e51b815260206004820152601960248201527f4552433732313a20617070726f766520746f2063616c6c6572000000000000006044820152fd5b90600e8210156113cb5752565b634e487b7160e01b600052602160045260246000fd5b906104a8906060806113fc8551608085526080850190610472565b946020810151602085015260408101511515604085015201519101906113be565b9060206104a89281815201906113e1565b503461000e576105056114be6000611472610ed461144b36610e5b565b939161145893919361307d565b5080865260ff602052610ec660ff60408820541615613867565b602083015260206001600160a01b0361010054169101516040518095819482937f72dcce1100000000000000000000000000000000000000000000000000000000845260048401613956565b03915afa908115611500575b6000916114df575b506040519182918261141d565b6114fa913d8091833e6114f281836115fc565b8101906138c8565b386114d2565b611508612370565b6114ca565b503461000e57602036600319011261000e5760043561152b816105c1565b6001600160a01b03806033541633148015611563575b61154a90612e30565b61010191166001600160a01b0319825416179055600080f35b5060fb5481163314611541565b50634e487b7160e01b600052604160045260246000fd5b67ffffffffffffffff811161159b57604052565b6115a3611570565b604052565b6080810190811067ffffffffffffffff82111761159b57604052565b6040810190811067ffffffffffffffff82111761159b57604052565b6060810190811067ffffffffffffffff82111761159b57604052565b90601f8019910116810190811067ffffffffffffffff82111761159b57604052565b60405190610160820182811067ffffffffffffffff82111761159b57604052565b60405190610120820182811067ffffffffffffffff82111761159b57604052565b604051906105dd826115c4565b60209067ffffffffffffffff811161168b575b601f01601f19160190565b611693611570565b611680565b81601f8201121561000e578035906116af8261166d565b926116bd60405194856115fc565b8284526020838301011161000e57816000926020809301838601378301015290565b503461000e57608036600319011261000e576004356116fd816105c1565b602435611709816105c1565b6064359167ffffffffffffffff831161000e5761172d61063b933690600401611698565b9160443591611fba565b503461000e57606036600319011261000e57600435611755816105c1565b6117b2602435611764816105c1565b60443590611771826105c1565b6000549361179660ff8660081c161580968197611830575b8115611810575b506128ff565b846117a9600160ff196000541617600055565b6117f757612970565b6117b857005b6117c861ff001960005416600055565b604051600181527f7f26b83ff96e1f2b6a682f133852f6798a09c465da95921460cefb384740249890602090a1005b61180b61010061ff00196000541617600055565b612970565b303b15915081611822575b5038611790565b6001915060ff16143861181b565b600160ff8216109150611789565b503461000e57602036600319011261000e576105056104f96004358060005260ff60205261187460ff6040600020541615613867565b61187c614ce2565b5061188a8160fe5411612e7b565b611893816133af565b509061196c60096118a261161e565b936118c46118b782546001600160a01b031690565b6001600160a01b03168652565b6118d060018201611dc0565b60208601526118e160028201611dc0565b60408601526118f260038201611dc0565b606086015261190360048201611dc0565b608086015261191460058201611dc0565b60a086015261192560068201611dc0565b60c086015261193660078201611dc0565b60e086015261194760088201611dc0565b610100860152015463ffffffff80821661012086015260209190911c16610140840152565b61197581611d64565b9060005261010360205260406000205491613caf565b503461000e57602036600319011261000e576004356119a9816105c1565b6001600160a01b038060335416331480156119e1575b6119c890612e30565b61010091166001600160a01b0319825416179055600080f35b5060fb54811633146119bf565b503461000e57604036600319011261000e5760043567ffffffffffffffff80821161000e573660238301121561000e5781600401359080821161000e57366024838501011161000e5760243590811161000e57610505926104f992611a596024933690600401610848565b939092016132c0565b503461000e57604036600319011261000e57602060ff611ac1600435611a87816105c1565b6001600160a01b0360243591611a9c836105c1565b16600052609c84526040600020906001600160a01b0316600052602052604060002090565b54166040519015158152f35b503461000e57600036600319011261000e5760206001600160a01b036101005416604051908152f35b503461000e57602036600319011261000e57600435611b14816105c1565b611b1c611bef565b6001600160a01b03811615611b345761063b90611c47565b608460405162461bcd60e51b815260206004820152602660248201527f4f776e61626c653a206e6577206f776e657220697320746865207a65726f206160448201527f64647265737300000000000000000000000000000000000000000000000000006064820152fd5b503461000e57600036600319011261000e5760206001600160a01b0360fb5416604051908152f35b503461000e57600036600319011261000e5760206001600160a01b036101025416604051908152f35b6001600160a01b03603354163303611c0357565b606460405162461bcd60e51b815260206004820152602060248201527f4f776e61626c653a2063616c6c6572206973206e6f7420746865206f776e65726044820152fd5b603354906001600160a01b0380911691826001600160a01b0319821617603355167f8be0079c531659141344cd1fd0a4f28419497f9722a3daafe3b4186f6b6457e0600080a3565b6001600160a01b03168015611caf57600052609a60205260406000205490565b608460405162461bcd60e51b815260206004820152602960248201527f4552433732313a2061646472657373207a65726f206973206e6f74206120766160448201527f6c6964206f776e657200000000000000000000000000000000000000000000006064820152fd5b15611d2057565b606460405162461bcd60e51b815260206004820152601860248201527f4552433732313a20696e76616c696420746f6b656e20494400000000000000006044820152fd5b60005260996020526001600160a01b03604060002054166104a8811515611d19565b90600182811c92168015611db6575b6020831014611da057565b634e487b7160e01b600052602260045260246000fd5b91607f1691611d95565b9060405191826000825492611dd484611d86565b908184526001948581169081600014611e415750600114611dfe575b50506105dd925003836115fc565b9093915060005260209081600020936000915b818310611e295750506105dd93508201013880611df0565b85548884018501529485019487945091830191611e11565b9150506105dd94506020925060ff191682840152151560051b8201013880611df0565b15611e6b57565b608460405162461bcd60e51b815260206004820152603d60248201527f4552433732313a20617070726f76652063616c6c6572206973206e6f7420746f60448201527f6b656e206f776e6572206f7220617070726f76656420666f7220616c6c0000006064820152fd5b611efd611ef88260005260996020526001600160a01b0360406000205416151590565b611d19565b600052609b6020526001600160a01b036040600020541690565b15611f1e57565b608460405162461bcd60e51b815260206004820152602d60248201527f4552433732313a2063616c6c6572206973206e6f7420746f6b656e206f776e6560448201527f72206f7220617070726f766564000000000000000000000000000000000000006064820152fd5b604051906020820182811067ffffffffffffffff821117611fad575b60405260008252565b611fb5611570565b611fa4565b90611fde939291611fce610a798433612050565b611fd9838383612142565b6123ad565b15611fe557565b60405162461bcd60e51b815260206004820152603260248201527f4552433732313a207472616e7366657220746f206e6f6e20455243373231526560448201527f63656976657220696d706c656d656e74657200000000000000000000000000006064820152608490fd5b6001600160a01b038061206284611d64565b169281831692848414948515612098575b50508315612082575b50505090565b61208e91929350611ed5565b161438808061207c565b60ff929550906120c791600052609c6020526040600020906001600160a01b0316600052602052604060002090565b5416923880612073565b156120d857565b608460405162461bcd60e51b815260206004820152602560248201527f4552433732313a207472616e736665722066726f6d20696e636f72726563742060448201527f6f776e65720000000000000000000000000000000000000000000000000000006064820152fd5b6121669061214f84611d64565b6001600160a01b03828116939091821684146120d1565b8316928315612259576121d7826121818784612232966125aa565b612197856121916111968a611d64565b146120d1565b6121be6121ae88600052609b602052604060002090565b6001600160a01b03198154169055565b6001600160a01b0316600052609a602052604060002090565b60001981540190556121fc816001600160a01b0316600052609a602052604060002090565b60018154019055612217856000526099602052604060002090565b906001600160a01b03166001600160a01b0319825416179055565b7fddf252ad1be2c89b69c2b068fc378daa952ba7f163c4a11628f55a4df523b3ef600080a4565b608460405162461bcd60e51b8152602060048201526024808201527f4552433732313a207472616e7366657220746f20746865207a65726f2061646460448201527f72657373000000000000000000000000000000000000000000000000000000006064820152fd5b81600052609b6020526122ef816040600020906001600160a01b03166001600160a01b0319825416179055565b6001600160a01b038061230184611d64565b169116907f8c5be1e5ebec7d5bd14f71427d1e84f3dd0314c0f7b2291e5b200ac8c7c3b925600080a4565b9081602091031261000e57516104a881610314565b90926104a894936080936001600160a01b03809216845216602083015260408201528160608201520190610472565b506040513d6000823e3d90fd5b3d156123a8573d9061238e8261166d565b9161239c60405193846115fc565b82523d6000602084013e565b606090565b92909190823b156124ea576124019260209260006001600160a01b036040518097819682957f150b7a02000000000000000000000000000000000000000000000000000000009b8c85523360048601612341565b0393165af1600091816124ba575b506124945761241c61237d565b8051908161248f5760405162461bcd60e51b815260206004820152603260248201527f4552433732313a207472616e7366657220746f206e6f6e20455243373231526560448201527f63656976657220696d706c656d656e74657200000000000000000000000000006064820152608490fd5b602001fd5b7fffffffff00000000000000000000000000000000000000000000000000000000161490565b6124dc91925060203d81116124e3575b6124d481836115fc565b81019061232c565b903861240f565b503d6124ca565b50505050600190565b6124fc81611c8f565b821015612529576001600160a01b031660005260c960205260406000209060005260205260406000205490565b608460405162461bcd60e51b815260206004820152602b60248201527f455243373231456e756d657261626c653a206f776e657220696e646578206f7560448201527f74206f6620626f756e64730000000000000000000000000000000000000000006064820152fd5b50634e487b7160e01b600052603260045260246000fd5b9091906001600160a01b0380821691826125ed57506125c883612759565b8316806125db5750506105dd91506127e9565b036125e4575050565b6105dd916126d6565b81851683036125fd575b506125c8565b61260681611c8f565b60001981019081116126c9575b61265e60009286845260ca602052604084205483810361266f575b50836126448860005260ca602052604060002090565b556001600160a01b031660005260c9602052604060002090565b9082526020526040812055386125f7565b86855260c9602052604085208486526020526126c260408620546126a6846001600160a01b031660005260c9602052604060002090565b83885260205280604088205560005260ca602052604060002090565b553861262e565b6126d16127d2565b612613565b6040906126e281611c8f565b926001600160a01b0360009216825260c96020528282208483526020528083832055815260ca6020522055565b8054906801000000000000000082101561274c575b6001820180825582101561273f575b60005260206000200155565b612747612593565b612733565b612754611570565b612724565b60cb548160005260cc60205280604060002055680100000000000000008110156127c5575b600181018060cb558110156127b8575b60cb6000527fa7ce836d032b2bf62b7e2097a8e0a6d8aeb35405ad15271e96d3b0188a1d06fb0155565b6127c0612593565b61278e565b6127cd611570565b61277e565b50634e487b7160e01b600052601160045260246000fd5b60cb805460001992908381018181116128f2575b612899600093849281845260cc6020528460408520549110156128e5575b8684526128887fa7ce836d032b2bf62b7e2097a8e0a6d8aeb35405ad15271e96d3b0188a1d06fa9586810154908310156128d8575b88865280837fa7ce836d032b2bf62b7e2097a8e0a6d8aeb35405ad15271e96d3b0188a1d06fb015560005260cc602052604060002090565b5560005260cc602052604060002090565b5582549384156128c457840193808510156128b7575b838352015555565b6128bf612593565b6128af565b602483634e487b7160e01b81526031600452fd5b6128e0612593565b612850565b6128ed612593565b61281b565b6128fa6127d2565b6127fd565b1561290657565b608460405162461bcd60e51b815260206004820152602e60248201527f496e697469616c697a61626c653a20636f6e747261637420697320616c72656160448201527f647920696e697469616c697a65640000000000000000000000000000000000006064820152fd5b906001600160a01b03906001600160a01b03199282610100911684825416179055816101019116838254161790556101029216908254161790556129c460ff60005460081c166129bf81612a73565b612a73565b6129cd33611c47565b612a426040516129dc816115c4565b600881527f457865546f6b656e000000000000000000000000000000000000000000000000602082015260405190612a13826115c4565b600382527f45584500000000000000000000000000000000000000000000000000000000006020830152612ae4565b6105dd612a576033546001600160a01b031690565b6001600160a01b03166001600160a01b031960fb54161760fb55565b15612a7a57565b608460405162461bcd60e51b815260206004820152602b60248201527f496e697469616c697a61626c653a20636f6e7472616374206973206e6f74206960448201527f6e697469616c697a696e670000000000000000000000000000000000000000006064820152fd5b90612afa60ff60005460081c166129bf81612a73565b815167ffffffffffffffff8111612bf5575b612b2081612b1b609754611d86565b612c02565b602080601f8311600114612b62575081906105dd94600092612b57575b50508160011b916000199060031b1c191617609755612d38565b015190503880612b3d565b919293601f198416612b9660976000527f354a83ed9988f79f6038d4c7a7dadbad8af32f4ad6df893e0e5807a1b1944ff990565b936000905b828210612bdd5750509160019391856105dd97969410612bc4575b505050811b01609755612d38565b015160001960f88460031b161c19169055388080612bb6565b80600186978294978701518155019601940190612b9b565b612bfd611570565b612b0c565b601f8111612c0e575050565b600090609782527f354a83ed9988f79f6038d4c7a7dadbad8af32f4ad6df893e0e5807a1b1944ff9906020601f850160051c83019410612c69575b601f0160051c01915b828110612c5e57505050565b818155600101612c52565b9092508290612c49565b601f8111612c7f575050565b600090609882527f2237a976fa961f5921fd19f2b03c925c725d77b20ce8f790c19709c03de4d814906020601f850160051c83019410612cda575b601f0160051c01915b828110612ccf57505050565b818155600101612cc3565b9092508290612cba565b90601f8111612cf257505050565b600091825260208220906020601f850160051c83019410612d2e575b601f0160051c01915b828110612d2357505050565b818155600101612d17565b9092508290612d0e565b90815167ffffffffffffffff8111612e23575b612d5f81612d5a609854611d86565b612c73565b602080601f8311600114612d9b5750819293600092612d90575b50508160011b916000199060031b1c191617609855565b015190503880612d79565b90601f19831694612dce60986000527f2237a976fa961f5921fd19f2b03c925c725d77b20ce8f790c19709c03de4d81490565b926000905b878210612e0b575050836001959610612df2575b505050811b01609855565b015160001960f88460031b161c19169055388080612de7565b80600185968294968601518155019501930190612dd3565b612e2b611570565b612d4b565b15612e3757565b606460405162461bcd60e51b815260206004820152600a60248201527f6f6e6c792061646d696e000000000000000000000000000000000000000000006044820152fd5b15612e8257565b606460405162461bcd60e51b815260206004820152601060248201527f746f6b656e206e6f7420657869737473000000000000000000000000000000006044820152fd5b60209067ffffffffffffffff8111612ee0575b60051b0190565b612ee8611570565b612ed9565b60405190612efa826115e0565b600282526040366020840137565b6001906000198114612f18570190565b612f206127d2565b0190565b602090805115612f32570190565b612f20612593565b604090805160011015612f32570190565b606090805160021015612f32570190565b6020918151811015612f71575b60051b010190565b612f79612593565b612f69565b63ffffffff81160361000e57565b35906105dd82612f7e565b600e111561000e57565b929190612fad81612ec6565b91604091612fbd835194856115fc565b839581855260208095019160051b81019383851161000e5781925b858410612fe85750505050505050565b67ffffffffffffffff843581811161000e5784019160808388031261000e578351613012816115a8565b833592831161000e578361302b898c9695879601611698565b825283810135848301528581013561304281610756565b868301526060809101359061305682612f97565b820152815201930192612fd8565b60405190613071826115c4565b60606020838281520152565b604051906080820182811067ffffffffffffffff8211176130b4575b60405260006060838181528260208201528260408201520152565b6130bc611570565b613099565b60409081516130cf816115c4565b60018152809160005b60208082101561310c578551602092916130f1826115c4565b606082526130fd61307d565b818301528286010152016130d8565b505091925050565b604090815191613123836115e0565b600283528260005b82811061313757505050565b6020908351613145816115c4565b6060815261315161307d565b818401528382018301520161312b565b9092919261316e8161166d565b9161317c60405193846115fc565b82948284528282011161000e5760206105dd93019061044f565b60208183031261000e5780519067ffffffffffffffff821161000e57019080601f8301121561000e5781516104a892602001613161565b908082519081815260208091019281808460051b8301019501936000915b8483106131fb5750505050505090565b9091929394958480613219600193601f198682030187528a516113e1565b98019301930191949392906131eb565b9190604090818101908451918382528251809152606082019060608160051b840101946020809501926000915b838310613276575050505050816104a894950151918184039101526131cd565b909192939686806132b1600193605f198a82030187528b5190836132a1835189845289840190610472565b92015190848184039101526113e1565b99019301930191939290613256565b92816064946132e76000956132d3613064565b946132dc6130c1565b8652610ef186614a55565b60208401526133456001600160a01b0361010054169360405197889687958695635a5c64ef60e11b875260406004880152816044880152838701378481018201899052601f01601f1916840184810360600160248601520190613229565b03915afa90811561336f575b60009161335c575090565b6104a8913d8091833e610f5f81836115fc565b613377612370565b613351565b903590601e198136030182121561000e570180359067ffffffffffffffff821161000e5760200191813603831361000e57565b600a9060fe548110156133eb575b60fe600052027f54075df80ec1ae6ac9100e1fd0ebf3246c17f5c933137af392011f4c5f61513a0190600090565b6133f3612593565b6133bd565b356104a8816105c1565b90929167ffffffffffffffff81116134cb575b613429816134238454611d86565b84612ce4565b6000601f82116001146134635781929394600092613458575b50508160011b916000199060031b1c1916179055565b013590503880613442565b601f1982169461347884600052602060002090565b91805b8781106134b3575083600195969710613499575b505050811b019055565b0135600019600384901b60f8161c1916905538808061348f565b9092602060018192868601358155019401910161347b565b6134d3611570565b613415565b356104a881612f7e565b61350660fe5468010000000000000000811015613677575b6001810160fe556133af565b9190916136615761364061014060096105dd94613541613525866133f8565b82906001600160a01b03166001600160a01b0319825416179055565b61355b613551602087018761337c565b9060018401613402565b61357561356b604087018761337c565b9060028401613402565b61358f613585606087018761337c565b9060038401613402565b6135a961359f608087018761337c565b9060048401613402565b6135c36135b960a087018761337c565b9060058401613402565b6135dd6135d360c087018761337c565b9060068401613402565b6135f76135ed60e087018761337c565b9060078401613402565b61361261360861010087018761337c565b9060088401613402565b019261363a61362461012083016134d8565b855463ffffffff191663ffffffff909116178555565b016134d8565b67ffffffff0000000082549160201b169067ffffffff000000001916179055565b634e487b7160e01b600052600060045260246000fd5b61367f611570565b6134fa565b6060909391929360408101938152826020946040868401525201929160005b8281106136b1575050505090565b90919293828060019263ffffffff88356136ca81612f7e565b168152019501939291016136a3565b90929192831161000e579190565b3590602081106136f5575090565b6000199060200360031b1b1690565b1561370b57565b606460405162461bcd60e51b815260206004820152601c60248201527f4552433732313a20746f6b656e20616c7265616479206d696e746564000000006044820152fd5b6001600160a01b038116908115613823576137fb9061378d6137878560005260996020526001600160a01b0360406000205416151590565b15613704565b61379684612759565b6137a084826126d6565b6137c36137878560005260996020526001600160a01b0360406000205416151590565b6137e0816001600160a01b0316600052609a602052604060002090565b60018154019055612217846000526099602052604060002090565b60007fddf252ad1be2c89b69c2b068fc378daa952ba7f163c4a11628f55a4df523b3ef8180a4565b606460405162461bcd60e51b815260206004820152602060248201527f4552433732313a206d696e7420746f20746865207a65726f20616464726573736044820152fd5b1561386e57565b606460405162461bcd60e51b815260206004820152600e60248201527f746f6b656e2064697361626c65640000000000000000000000000000000000006044820152fd5b51906105dd82610756565b51906105dd82612f97565b9060208282031261000e57815167ffffffffffffffff9283821161000e57019060808282031261000e57604051926138ff846115a8565b825190811161000e5782019181601f8401121561000e5761392b60609284602061394e96519101613161565b845260208101516020850152613943604082016138b2565b6040850152016138bd565b606082015290565b909161396d6104a893604084526040840190610472565b916020818403910152613229565b90612f206020928281519485920161044f565b906139999082614708565b60608201519060808301519260408101519060208101516139b9906140d8565b90516139cd906001600160a01b0316613ffe565b6139d5613f69565b916139de613dbc565b6040517f7b226e616d65223a220000000000000000000000000000000000000000000000602082015297889791959160298901613a1a9161397b565b7f222c226465736372697074696f6e223a220000000000000000000000000000008152601101613a499161397b565b7f222c2261747472696275746573223a5b0000000000000000000000000000000081526010017f7b2274726169745f74797065223a20226c616e67222c2276616c7565223a22008152601f01613a9e9161397b565b7f227d2c7b2274726169745f74797065223a2022636f6465222c2276616c75652281527f3a220000000000000000000000000000000000000000000000000000000000006020820152602201613af39161397b565b7f227d2c7b2274726169745f74797065223a202263726561746f72222c2276616c81527f7565223a220000000000000000000000000000000000000000000000000000006020820152602501613b489161397b565b7f227d2c7b2274726169745f74797065223a20226f776e6572222c2276616c756581527f223a2200000000000000000000000000000000000000000000000000000000006020820152602301613b9d9161397b565b7f227d2c7b2274726169745f74797065223a20226578656375746564436f756e7481527f222c2276616c7565223a220000000000000000000000000000000000000000006020820152602b01613bf29161397b565b7f227d5d2c22696d616765223a22000000000000000000000000000000000000008152600d01613c219161397b565b7f227d00000000000000000000000000000000000000000000000000000000000081526002010390601f19918281018252613c5c90826115fc565b613c65906140d8565b6040517f646174613a6170706c69636174696f6e2f6a736f6e3b6261736536342c000000602082015291908290603d8201613c9f9161397b565b0390810182526104a890826115fc565b919091613cbb81614476565b906060810151926080820151946040830151926020810151613cdc906140d8565b9051613cf0906001600160a01b0316613ffe565b916001600160a01b0316613d0390613ffe565b926139de90613df5565b60405190613d1a826115e0565b602a82526040366020840137565b90613d328261166d565b613d3f60405191826115fc565b8281528092613d50601f199161166d565b0190602036910137565b9060028201809211613d6857565b6105dd6127d2565b9060018201809211613d6857565b9060208201809211613d6857565b602190805160011015612f32570190565b906020918051821015613daf57010190565b613db7612593565b010190565b604051613dc8816115c4565b600181527f3000000000000000000000000000000000000000000000000000000000000000602082015290565b8015613ea9576000818181805b613e915750613e1081613d28565b935b613e1c5750505090565b6000198101908111613e84575b8091600a91613e6e7fff0000000000000000000000000000000000000000000000000000000000000060308585068101809111613e77575b60f81b16861a9187613d9d565b53049081613e12565b613e7f6127d2565b613e61565b613e8c6127d2565b613e29565b9150613e9e600a91612f08565b910480849291613e02565b50604051613dc8816115c4565b908160021b917f3fffffffffffffffffffffffffffffffffffffffffffffffffffffffffffffff811603613d6857565b90670de0b6b3a764000091828102928184041490151715613d6857565b8015613f11575b6000190190565b613f196127d2565b613f0a565b15613f2557565b606460405162461bcd60e51b815260206004820152602060248201527f537472696e67733a20686578206c656e67746820696e73756666696369656e746044820152fd5b6000613f73613d0d565b906030613f7f83612f24565b536078613f8b83613d8c565b536029905b60018211613fa3576104a8915015613f1e565b807f3031323334353637383961626364656600000000000000000000000000000000600f613feb93166010811015613ff1575b1a613fe18486613d9d565b5360041c91613f03565b90613f90565b613ff9612593565b613fd6565b614006613d0d565b90603061401283612f24565b53607861401e83613d8c565b536029905b60018211614036576104a8915015613f1e565b807f3031323334353637383961626364656600000000000000000000000000000000600f61407393166010811015613ff1571a613fe18486613d9d565b90614023565b60405190614086826115e0565b604082527f6768696a6b6c6d6e6f707172737475767778797a303132333435363738392b2f6040837f4142434445464748494a4b4c4d4e4f505152535455565758595a61626364656660208201520152565b8051156141f7576140e7614079565b6141036140fe6140f78451613d5a565b6003900490565b613eb6565b9161411561411084613d7e565b613d28565b92835280815182019060208501935b82821061419b5750505060039051068060011461417057600214614146575090565b7f3d0000000000000000000000000000000000000000000000000000000000000090600019015290565b507f3d3d00000000000000000000000000000000000000000000000000000000000090600119015290565b90919360049060038094019384516001603f81818460121c16880101519260f893841b8652828282600c1c1689010151841b8387015282828260061c1689010151841b60028701521686010151901b9082015201939190614124565b506104a8611f88565b6040519061420d826115c4565b600a82527f646174613a696d616765000000000000000000000000000000000000000000006020830152565b60405190614246826115c4565b600482527f6e616d65000000000000000000000000000000000000000000000000000000006020830152565b6040519061427f826115c4565b600b82527f6465736372697074696f6e0000000000000000000000000000000000000000006020830152565b604051906142b8826115c4565b600482527f636f6465000000000000000000000000000000000000000000000000000000006020830152565b604051906142f1826115c4565b600682527f726573756c7400000000000000000000000000000000000000000000000000006020830152565b6000915b6002831061432e57505050565b60019063ffffffff83511681526020809101920192019190614321565b929160606105dd9261015e80875260208701526080604087015261437d815161014060808901526101c0880190610472565b6143e06143ca6143b76143a3602086015194607f19958c60a08882850301910152610472565b6040860151858c83030160c08d0152610472565b85850151848b83030160e08c0152610472565b6080840151610100938a830301848b0152610472565b916143f460a08201516101208a019061431d565b60c081015161016089015260e081015161018089015201516101a08701529401906001600160a01b03169052565b906105dd603a60405180947f646174613a696d6167652f7376672b786d6c3b6261736536342c0000000000006020830152614466815180926020868601910161044f565b810103601a8101855201836115fc565b60a08101906144966144888351614e42565b614490614200565b90614ec2565b156144a057505190565b6145ab60006104a8936145da936060906144bd8351614490614239565b84146146055761020091506060810151925b519060c08101519160e082015161010093848401519261452e6145216101406144f6611660565b9761451661450c61012083015163ffffffff1690565b63ffffffff168a52565b015163ffffffff1690565b63ffffffff166020870152565b61453661163f565b978852602088015260408701526060860152608085015260a084015261015e8060c085015260e0840152820152614576610101546001600160a01b031690565b9060405193849283927f58c92ec00000000000000000000000000000000000000000000000000000000084526004840161434b565b038173__$5b562c355aff420f155d99b44c1e69fd68$__5af49081156145f8575b6000916145df575b506140d8565b614422565b6145f2913d8091833e610f5f81836115fc565b386145d4565b614600612370565b6145cc565b6146128351614490614272565b84146146285761020091506080810151926144cf565b61463583516144906142ab565b841461464b5761020091506020810151926144cf565b61465883516144906142e4565b614667575b61020091926144cf565b6146c78461020093614677613064565b906020820152614685613114565b815261469081614c3d565b6146a6611196610100546001600160a01b031690565b6020850151604051809581948293635a5c64ef60e11b845260048401613956565b03915afa9081156146fb575b85916146e2575b50915061465d565b6146f5913d8091833e610f5f81836115fc565b386146da565b614703612370565b6146d3565b9060a082019161471b6144888451614e42565b156147265750505190565b60006104a8936145da936145ab936060916147448451614490614239565b851461477d57506102009150606081015192519060c08101519160e082015161010093848401519261452e6145216101406144f6611660565b61478a8451614490614272565b85146147a1575061020091506080810151926144cf565b6147ae84516144906142ab565b85146147c5575061020091506020810151926144cf565b6147d284516144906142e4565b6147e2575b5061020091926144cf565b6102009250846147f491614677613064565b03915afa908115614827575b859161480e575b50916147d7565b614821913d8091833e610f5f81836115fc565b38614807565b61482f612370565b614800565b6040519060a0820182811067ffffffffffffffff821117614873575b604052600060808360608152606060208201528260408201528260608201520152565b61487b611570565b614850565b6040519061488d826115c4565b600b82527f626c6f636b4e756d6265720000000000000000000000000000000000000000006020830152565b604051906148c6826115c4565b600982527f74696d657374616d7000000000000000000000000000000000000000000000006020830152565b604051906148ff826115c4565b6000602083606081520152565b604051906080820182811067ffffffffffffffff821117614956575b604052600382528160005b6060811061493f575050565b60209061494a614834565b82828501015201614933565b61495e611570565b614928565b602091828252606092838301918051946040938484870152865180915260809182870185848460051b8a01019901936000925b8484106149ab57505050505050015191015290565b90919293949987808a614a0c6001948f8f89918291607f19908503018c52516149ef6149df825160a0808852870190610472565b888301518682038a880152610472565b9580820151908501528981015115158a85015201519101906113be565b9c01940194019294939190614996565b60405190614a29826115c4565b600d82527f657468657265756d426c6f636b000000000000000000000000000000000000006020830152565b90614aa7614a61614834565b91614a6a614880565b60209080828601528181519101209060409182860152614a8d6080860160049052565b614a9643613ee6565b825182810191825294859160200190565b0393614abb601f19958681018352826115fc565b855260016060860152614acc614834565b95614ad56148b9565b808389015282815191012083880152614af16080880160049052565b614b11614b1d614b0042613ee6565b855185810191825292839160200190565b038781018352826115fc565b875260016060880152614b2e614834565b6007608082015294614b3e612eed565b9560005b8751811015614b675780614b58614b6292613d70565b610cd4828b612f5c565b614b42565b50614bec614c389699614bd9879a879a614b9d614c0f99614b91614c1b9a9c519384928301610c15565b038881018352826115fc565b8552614bc6614baa6148f2565b95614bb361490c565b90818852614bc082612f24565b52612f24565b50845190614bd382612f3a565b52612f3a565b50825190614be682612f4b565b52612f4b565b50600087820152614bfb61307d565b600760608201529751938491888301614963565b039081018352826115fc565b8452614c278151612f24565b51614c30614a1c565b905251612f24565b510152565b90614c49614a61614834565b0393614c5d601f19958681018352826115fc565b855260016060860152614c6e614834565b95614c776148b9565b808389015282815191012083880152614c936080880160049052565b614b11614ca2614b0042613ee6565b875260016060880152614cb3614834565b6007608082015294614cc3612eed565b9560005b8751811015614b675780614b58614cdd92613d70565b614cc7565b60405190610160820182811067ffffffffffffffff821117614d47575b604052600061014083828152606080602083015280604083015280808301528060808301528060a08301528060c08301528060e0830152610100820152826101208201520152565b614d4f611570565b614cff565b614d6a90614d658160fe5411612e7b565b6133af565b506104a86009614d7861161e565b92614d9a614d8d82546001600160a01b031690565b6001600160a01b03168552565b614da660018201611dc0565b6020850152614db760028201611dc0565b6040850152614dc860038201611dc0565b6060850152614dd960048201611dc0565b6080850152614dea60058201611dc0565b60a0850152614dfb60068201611dc0565b60c0850152614e0c60078201611dc0565b60e0850152614e1d60088201611dc0565b610100850152015463ffffffff80821661012085015260209190911c16610140830152565b600a80825110614ebe5760405191614e59836115c4565b81835260203681850137600090815b838110614e76575050505090565b807fff00000000000000000000000000000000000000000000000000000000000000614ea5614eb99385613d9d565b5116841a614eb38288613d9d565b53612f08565b614e68565b5090565b919060009280519082518214614ed757505050565b90919350600193601f60059301831c9260005b8685821016614efa575050505050565b80821b8381016020908101519186010151149650600101614eea56fea26469706673582212200ca43570accd353616dec2e4cb0490cf8bf5fdc486fda2270d9ec0a0db3a874764736f6c63430008110033",
  "linkReferences": {
    "contracts/util/TokenSvg.sol": {
      "TokenSvg": [
        {
          "length": 20,
          "start": 17867
        }
      ]
    }
  },
  "deployedLinkReferences": {
    "contracts/util/TokenSvg.sol": {
      "TokenSvg": [
        {
          "length": 20,
          "start": 17839
        }
      ]
    }
  }
}