{
  "_format": "hh-sol-artifact-1",
  "contractName": "ExeToken",
  "sourceName": "contracts/token/ExeToken.sol",
  "abi": [
    {
      "anonymous": false,
      "inputs": [
        {
          "indexed": true,
          "internalType": "address",
          "name": "owner",
          "type": "address"
        },
        {
          "indexed": true,
          "internalType": "address",
          "name": "approved",
          "type": "address"
        },
        {
          "indexed": true,
          "internalType": "uint256",
          "name": "tokenId",
          "type": "uint256"
        }
      ],
      "name": "Approval",
      "type": "event"
    },
    {
      "anonymous": false,
      "inputs": [
        {
          "indexed": true,
          "internalType": "address",
          "name": "owner",
          "type": "address"
        },
        {
          "indexed": true,
          "internalType": "address",
          "name": "operator",
          "type": "address"
        },
        {
          "indexed": false,
          "internalType": "bool",
          "name": "approved",
          "type": "bool"
        }
      ],
      "name": "ApprovalForAll",
      "type": "event"
    },
    {
      "anonymous": false,
      "inputs": [
        {
          "indexed": true,
          "internalType": "uint256",
          "name": "tokenId",
          "type": "uint256"
        },
        {
          "indexed": true,
          "internalType": "address",
          "name": "creator",
          "type": "address"
        },
        {
          "indexed": true,
          "internalType": "address",
          "name": "owner",
          "type": "address"
        },
        {
          "indexed": false,
          "internalType": "uint256",
          "name": "timestamp",
          "type": "uint256"
        }
      ],
      "name": "Executed",
      "type": "event"
    },
    {
      "anonymous": false,
      "inputs": [
        {
          "indexed": false,
          "internalType": "uint8",
          "name": "version",
          "type": "uint8"
        }
      ],
      "name": "Initialized",
      "type": "event"
    },
    {
      "anonymous": false,
      "inputs": [
        {
          "indexed": true,
          "internalType": "address",
          "name": "creator",
          "type": "address"
        },
        {
          "indexed": true,
          "internalType": "uint256",
          "name": "tokenId",
          "type": "uint256"
        },
        {
          "indexed": true,
          "internalType": "bytes32",
          "name": "name",
          "type": "bytes32"
        }
      ],
      "name": "Minted",
      "type": "event"
    },
    {
      "anonymous": false,
      "inputs": [
        {
          "indexed": true,
          "internalType": "address",
          "name": "previousOwner",
          "type": "address"
        },
        {
          "indexed": true,
          "internalType": "address",
          "name": "newOwner",
          "type": "address"
        }
      ],
      "name": "OwnershipTransferred",
      "type": "event"
    },
    {
      "anonymous": false,
      "inputs": [
        {
          "indexed": true,
          "internalType": "uint256",
          "name": "tokenId",
          "type": "uint256"
        },
        {
          "indexed": true,
          "internalType": "bool",
          "name": "disabled",
          "type": "bool"
        }
      ],
      "name": "TokenDisabled",
      "type": "event"
    },
    {
      "anonymous": false,
      "inputs": [
        {
          "indexed": true,
          "internalType": "address",
          "name": "from",
          "type": "address"
        },
        {
          "indexed": true,
          "internalType": "address",
          "name": "to",
          "type": "address"
        },
        {
          "indexed": true,
          "internalType": "uint256",
          "name": "tokenId",
          "type": "uint256"
        }
      ],
      "name": "Transfer",
      "type": "event"
    },
    {
      "inputs": [],
      "name": "admin",
      "outputs": [
        {
          "internalType": "address",
          "name": "",
          "type": "address"
        }
      ],
      "stateMutability": "view",
      "type": "function"
    },
    {
      "inputs": [
        {
          "internalType": "address",
          "name": "to",
          "type": "address"
        },
        {
          "internalType": "uint256",
          "name": "tokenId",
          "type": "uint256"
        }
      ],
      "name": "approve",
      "outputs": [],
      "stateMutability": "nonpayable",
      "type": "function"
    },
    {
      "inputs": [
        {
          "internalType": "address",
          "name": "owner",
          "type": "address"
        }
      ],
      "name": "balanceOf",
      "outputs": [
        {
          "internalType": "uint256",
          "name": "",
          "type": "uint256"
        }
      ],
      "stateMutability": "view",
      "type": "function"
    },
    {
      "inputs": [
        {
          "internalType": "uint256",
          "name": "_tokenId",
          "type": "uint256"
        },
        {
          "components": [
            {
              "internalType": "bytes",
              "name": "value",
              "type": "bytes"
            },
            {
              "internalType": "uint256",
              "name": "identifierIndex",
              "type": "uint256"
            },
            {
              "internalType": "bool",
              "name": "numberSign",
              "type": "bool"
            },
            {
              "internalType": "enum IJSInterpreter.JSValueType",
              "name": "valueType",
              "type": "uint8"
            }
          ],
          "internalType": "struct IJSInterpreter.JSValue[]",
          "name": "_args",
          "type": "tuple[]"
        }
      ],
      "name": "execute",
      "outputs": [
        {
          "components": [
            {
              "internalType": "bytes",
              "name": "value",
              "type": "bytes"
            },
            {
              "internalType": "uint256",
              "name": "identifierIndex",
              "type": "uint256"
            },
            {
              "internalType": "bool",
              "name": "numberSign",
              "type": "bool"
            },
            {
              "internalType": "enum IJSInterpreter.JSValueType",
              "name": "valueType",
              "type": "uint8"
            }
          ],
          "internalType": "struct IJSInterpreter.JSValue",
          "name": "",
          "type": "tuple"
        }
      ],
      "stateMutability": "nonpayable",
      "type": "function"
    },
    {
      "inputs": [
        {
          "internalType": "uint256",
          "name": "_tokenId",
          "type": "uint256"
        },
        {
          "components": [
            {
              "internalType": "bytes",
              "name": "value",
              "type": "bytes"
            },
            {
              "internalType": "uint256",
              "name": "identifierIndex",
              "type": "uint256"
            },
            {
              "internalType": "bool",
              "name": "numberSign",
              "type": "bool"
            },
            {
              "internalType": "enum IJSInterpreter.JSValueType",
              "name": "valueType",
              "type": "uint8"
            }
          ],
          "internalType": "struct IJSInterpreter.JSValue[]",
          "name": "_args",
          "type": "tuple[]"
        }
      ],
      "name": "executeToString",
      "outputs": [
        {
          "internalType": "string",
          "name": "",
          "type": "string"
        }
      ],
      "stateMutability": "nonpayable",
      "type": "function"
    },
    {
      "inputs": [
        {
          "internalType": "uint256",
          "name": "tokenId",
          "type": "uint256"
        }
      ],
      "name": "getApproved",
      "outputs": [
        {
          "internalType": "address",
          "name": "",
          "type": "address"
        }
      ],
      "stateMutability": "view",
      "type": "function"
    },
    {
      "inputs": [
        {
          "internalType": "uint256",
          "name": "_tokenId",
          "type": "uint256"
        }
      ],
      "name": "getExecutedCount",
      "outputs": [
        {
          "internalType": "uint256",
          "name": "",
          "type": "uint256"
        }
      ],
      "stateMutability": "view",
      "type": "function"
    },
    {
      "inputs": [
        {
          "internalType": "address",
          "name": "_creator",
          "type": "address"
        }
      ],
      "name": "getTokenIdsByCreator",
      "outputs": [
        {
          "internalType": "uint256[]",
          "name": "",
          "type": "uint256[]"
        }
      ],
      "stateMutability": "view",
      "type": "function"
    },
    {
      "inputs": [
        {
          "internalType": "address",
          "name": "_owner",
          "type": "address"
        }
      ],
      "name": "getTokenIdsByOwner",
      "outputs": [
        {
          "internalType": "uint256[]",
          "name": "",
          "type": "uint256[]"
        }
      ],
      "stateMutability": "view",
      "type": "function"
    },
    {
      "inputs": [
        {
          "internalType": "uint256",
          "name": "_tokenId",
          "type": "uint256"
        }
      ],
      "name": "incrementExecutedCount",
      "outputs": [],
      "stateMutability": "nonpayable",
      "type": "function"
    },
    {
      "inputs": [
        {
          "internalType": "contract ISnippetJS",
          "name": "_snippetJs",
          "type": "address"
        },
        {
          "internalType": "contract IFontProvider",
          "name": "_fontProvider",
          "type": "address"
        },
        {
          "internalType": "contract ITokenCategoryStore",
          "name": "_categoryStore",
          "type": "address"
        }
      ],
      "name": "initialize",
      "outputs": [],
      "stateMutability": "nonpayable",
      "type": "function"
    },
    {
      "inputs": [
        {
          "internalType": "address",
          "name": "owner",
          "type": "address"
        },
        {
          "internalType": "address",
          "name": "operator",
          "type": "address"
        }
      ],
      "name": "isApprovedForAll",
      "outputs": [
        {
          "internalType": "bool",
          "name": "",
          "type": "bool"
        }
      ],
      "stateMutability": "view",
      "type": "function"
    },
    {
      "inputs": [
        {
          "components": [
            {
              "internalType": "address",
              "name": "creator",
              "type": "address"
            },
            {
              "internalType": "string",
              "name": "code",
              "type": "string"
            },
            {
              "internalType": "string",
              "name": "lang",
              "type": "string"
            },
            {
              "internalType": "string",
              "name": "name",
              "type": "string"
            },
            {
              "internalType": "string",
              "name": "description",
              "type": "string"
            },
            {
              "internalType": "string",
              "name": "content",
              "type": "string"
            },
            {
              "internalType": "string",
              "name": "contentColor",
              "type": "string"
            },
            {
              "internalType": "string",
              "name": "contentOpacity",
              "type": "string"
            },
            {
              "internalType": "string",
              "name": "backgroundColor",
              "type": "string"
            },
            {
              "internalType": "uint32",
              "name": "contentOffsetX",
              "type": "uint32"
            },
            {
              "internalType": "uint32",
              "name": "contentOffsetY",
              "type": "uint32"
            }
          ],
          "internalType": "struct IExeToken.TokenAttributes",
          "name": "_attrs",
          "type": "tuple"
        },
        {
          "internalType": "uint32[]",
          "name": "_categories",
          "type": "uint32[]"
        }
      ],
      "name": "mint",
      "outputs": [
        {
          "internalType": "uint256",
          "name": "",
          "type": "uint256"
        }
      ],
      "stateMutability": "nonpayable",
      "type": "function"
    },
    {
      "inputs": [],
      "name": "name",
      "outputs": [
        {
          "internalType": "string",
          "name": "",
          "type": "string"
        }
      ],
      "stateMutability": "view",
      "type": "function"
    },
    {
      "inputs": [],
      "name": "owner",
      "outputs": [
        {
          "internalType": "address",
          "name": "",
          "type": "address"
        }
      ],
      "stateMutability": "view",
      "type": "function"
    },
    {
      "inputs": [
        {
          "internalType": "uint256",
          "name": "tokenId",
          "type": "uint256"
        }
      ],
      "name": "ownerOf",
      "outputs": [
        {
          "internalType": "address",
          "name": "",
          "type": "address"
        }
      ],
      "stateMutability": "view",
      "type": "function"
    },
    {
      "inputs": [
        {
          "components": [
            {
              "internalType": "address",
              "name": "creator",
              "type": "address"
            },
            {
              "internalType": "string",
              "name": "code",
              "type": "string"
            },
            {
              "internalType": "string",
              "name": "lang",
              "type": "string"
            },
            {
              "internalType": "string",
              "name": "name",
              "type": "string"
            },
            {
              "internalType": "string",
              "name": "description",
              "type": "string"
            },
            {
              "internalType": "string",
              "name": "content",
              "type": "string"
            },
            {
              "internalType": "string",
              "name": "contentColor",
              "type": "string"
            },
            {
              "internalType": "string",
              "name": "contentOpacity",
              "type": "string"
            },
            {
              "internalType": "string",
              "name": "backgroundColor",
              "type": "string"
            },
            {
              "internalType": "uint32",
              "name": "contentOffsetX",
              "type": "uint32"
            },
            {
              "internalType": "uint32",
              "name": "contentOffsetY",
              "type": "uint32"
            }
          ],
          "internalType": "struct IExeToken.TokenAttributes",
          "name": "_attrs",
          "type": "tuple"
        },
        {
          "components": [
            {
              "internalType": "bytes",
              "name": "value",
              "type": "bytes"
            },
            {
              "internalType": "uint256",
              "name": "identifierIndex",
              "type": "uint256"
            },
            {
              "internalType": "bool",
              "name": "numberSign",
              "type": "bool"
            },
            {
              "internalType": "enum IJSInterpreter.JSValueType",
              "name": "valueType",
              "type": "uint8"
            }
          ],
          "internalType": "struct IJSInterpreter.JSValue[]",
          "name": "_args",
          "type": "tuple[]"
        }
      ],
      "name": "preview",
      "outputs": [
        {
          "internalType": "string",
          "name": "",
          "type": "string"
        }
      ],
      "stateMutability": "view",
      "type": "function"
    },
    {
      "inputs": [],
      "name": "renounceOwnership",
      "outputs": [],
      "stateMutability": "nonpayable",
      "type": "function"
    },
    {
      "inputs": [
        {
          "internalType": "address",
          "name": "from",
          "type": "address"
        },
        {
          "internalType": "address",
          "name": "to",
          "type": "address"
        },
        {
          "internalType": "uint256",
          "name": "tokenId",
          "type": "uint256"
        }
      ],
      "name": "safeTransferFrom",
      "outputs": [],
      "stateMutability": "nonpayable",
      "type": "function"
    },
    {
      "inputs": [
        {
          "internalType": "address",
          "name": "from",
          "type": "address"
        },
        {
          "internalType": "address",
          "name": "to",
          "type": "address"
        },
        {
          "internalType": "uint256",
          "name": "tokenId",
          "type": "uint256"
        },
        {
          "internalType": "bytes",
          "name": "data",
          "type": "bytes"
        }
      ],
      "name": "safeTransferFrom",
      "outputs": [],
      "stateMutability": "nonpayable",
      "type": "function"
    },
    {
      "inputs": [
        {
          "internalType": "address",
          "name": "_admin",
          "type": "address"
        }
      ],
      "name": "setAdmin",
      "outputs": [],
      "stateMutability": "nonpayable",
      "type": "function"
    },
    {
      "inputs": [
        {
          "internalType": "address",
          "name": "operator",
          "type": "address"
        },
        {
          "internalType": "bool",
          "name": "approved",
          "type": "bool"
        }
      ],
      "name": "setApprovalForAll",
      "outputs": [],
      "stateMutability": "nonpayable",
      "type": "function"
    },
    {
      "inputs": [
        {
          "internalType": "uint256",
          "name": "_tokenId",
          "type": "uint256"
        },
        {
          "internalType": "bool",
          "name": "disabled",
          "type": "bool"
        }
      ],
      "name": "setDisabled",
      "outputs": [],
      "stateMutability": "nonpayable",
      "type": "function"
    },
    {
      "inputs": [
        {
          "internalType": "contract IFontProvider",
          "name": "_fontProvider",
          "type": "address"
        }
      ],
      "name": "setFontProvider",
      "outputs": [],
      "stateMutability": "nonpayable",
      "type": "function"
    },
    {
      "inputs": [
        {
          "internalType": "contract ISnippetJS",
          "name": "_snippetJs",
          "type": "address"
        }
      ],
      "name": "setSnippetJs",
      "outputs": [],
      "stateMutability": "nonpayable",
      "type": "function"
    },
    {
      "inputs": [
        {
          "internalType": "bytes4",
          "name": "interfaceId",
          "type": "bytes4"
        }
      ],
      "name": "supportsInterface",
      "outputs": [
        {
          "internalType": "bool",
          "name": "",
          "type": "bool"
        }
      ],
      "stateMutability": "view",
      "type": "function"
    },
    {
      "inputs": [],
      "name": "symbol",
      "outputs": [
        {
          "internalType": "string",
          "name": "",
          "type": "string"
        }
      ],
      "stateMutability": "view",
      "type": "function"
    },
    {
      "inputs": [
        {
          "internalType": "string",
          "name": "_code",
          "type": "string"
        },
        {
          "components": [
            {
              "internalType": "bytes",
              "name": "value",
              "type": "bytes"
            },
            {
              "internalType": "uint256",
              "name": "identifierIndex",
              "type": "uint256"
            },
            {
              "internalType": "bool",
              "name": "numberSign",
              "type": "bool"
            },
            {
              "internalType": "enum IJSInterpreter.JSValueType",
              "name": "valueType",
              "type": "uint8"
            }
          ],
          "internalType": "struct IJSInterpreter.JSValue[]",
          "name": "_args",
          "type": "tuple[]"
        }
      ],
      "name": "test",
      "outputs": [
        {
          "internalType": "string",
          "name": "",
          "type": "string"
        }
      ],
      "stateMutability": "view",
      "type": "function"
    },
    {
      "inputs": [
        {
          "internalType": "uint256",
          "name": "index",
          "type": "uint256"
        }
      ],
      "name": "tokenByIndex",
      "outputs": [
        {
          "internalType": "uint256",
          "name": "",
          "type": "uint256"
        }
      ],
      "stateMutability": "view",
      "type": "function"
    },
    {
      "inputs": [
        {
          "internalType": "address",
          "name": "owner",
          "type": "address"
        },
        {
          "internalType": "uint256",
          "name": "index",
          "type": "uint256"
        }
      ],
      "name": "tokenOfOwnerByIndex",
      "outputs": [
        {
          "internalType": "uint256",
          "name": "",
          "type": "uint256"
        }
      ],
      "stateMutability": "view",
      "type": "function"
    },
    {
      "inputs": [
        {
          "internalType": "uint256",
          "name": "_tokenId",
          "type": "uint256"
        }
      ],
      "name": "tokenURI",
      "outputs": [
        {
          "internalType": "string",
          "name": "",
          "type": "string"
        }
      ],
      "stateMutability": "view",
      "type": "function"
    },
    {
      "inputs": [],
      "name": "totalSupply",
      "outputs": [
        {
          "internalType": "uint256",
          "name": "",
          "type": "uint256"
        }
      ],
      "stateMutability": "view",
      "type": "function"
    },
    {
      "inputs": [
        {
          "internalType": "address",
          "name": "from",
          "type": "address"
        },
        {
          "internalType": "address",
          "name": "to",
          "type": "address"
        },
        {
          "internalType": "uint256",
          "name": "tokenId",
          "type": "uint256"
        }
      ],
      "name": "transferFrom",
      "outputs": [],
      "stateMutability": "nonpayable",
      "type": "function"
    },
    {
      "inputs": [
        {
          "internalType": "address",
          "name": "newOwner",
          "type": "address"
        }
      ],
      "name": "transferOwnership",
      "outputs": [],
      "stateMutability": "nonpayable",
      "type": "function"
    }
  ],
  "bytecode": "0x6080806040523461001657614f1b908161001c8239f35b600080fdfe60806040526004361015610013575b600080fd5b60003560e01c806301ffc9a7146102bb57806306fdde03146102b2578063081812fc146102a9578063095ea7b3146102a057806315ea29be1461029757806318160ddd1461028e5780631fd19eba1461028557806323b872dd1461027c5780632f745c591461027357806342842e0e1461026a5780634f6ccce7146102615780636352211e1461025857806364fb83b11461024f5780636970bb0a14610246578063704b6c021461023d57806370a0823114610234578063715018a61461022b5780637b12246b14610222578063828011911461021957806385a7185e146102105780638da5cb5b1461020757806395d89b41146101fe578063997c96c4146101f5578063a22cb465146101ec578063a498f4f4146101e3578063b0ec0c02146101da578063b88d4fde146101d1578063c0c53b8b146101c8578063c87b56dd146101bf578063ca7e89dc146101b6578063cdf41680146101ad578063e985e9c5146101a4578063f2fde38b1461019b5763f851a4401461019357600080fd5b61000e611b9d565b5061000e611af5565b5061000e611a8a565b5061000e611a16565b5061000e6119b3565b5061000e611866565b5061000e61175f565b5061000e611707565b5061000e611535565b5061000e6113d9565b5061000e611278565b5061000e6110b9565b5061000e611011565b5061000e610fe9565b5061000e610f31565b5061000e610daf565b5061000e610cf6565b5061000e610c99565b5061000e610c71565b5061000e610c2c565b5061000e610b9d565b5061000e610b27565b5061000e610b08565b5061000e610a4c565b5061000e610a04565b5061000e6109d0565b5061000e6109a6565b5061000e610813565b5061000e610776565b5061000e6106ad565b5061000e61058f565b5061000e610541565b5061000e61045b565b5061000e6102ee565b7fffffffff0000000000000000000000000000000000000000000000000000000081160361000e57565b503461000e57602036600319011261000e5760207fffffffff0000000000000000000000000000000000000000000000000000000060043561032f816102c4565b167f780e9d63000000000000000000000000000000000000000000000000000000008114908115610366575b506040519015158152f35b7f80ac58cd000000000000000000000000000000000000000000000000000000008114915081156103ca575b81156103a0575b503861035b565b7f01ffc9a70000000000000000000000000000000000000000000000000000000091501438610399565b7f5b5e139f0000000000000000000000000000000000000000000000000000000081149150610392565b600091031261000e57565b60005b8381106104125750506000910152565b8181015183820152602001610402565b9060209161043b815180928185528580860191016103ff565b601f01601f1916010190565b906020610458928181520190610422565b90565b503461000e5760008060031936011261053e57604051908060975461047f81611d5c565b8085529160019180831690811561051457506001146104b9575b6104b5856104a981870382611624565b60405191829182610447565b0390f35b9250609783527f354a83ed9988f79f6038d4c7a7dadbad8af32f4ad6df893e0e5807a1b1944ff95b8284106104fc5750505081016020016104a9826104b5610499565b805460208587018101919091529093019281016104e1565b8695506104b5969350602092506104a994915060ff191682840152151560051b8201019293610499565b80fd5b503461000e57602036600319011261000e576020610560600435611eab565b6001600160a01b0360405191168152f35b6001600160a01b0381160361000e57565b359061058d82610571565b565b503461000e57604036600319011261000e576004356105ad81610571565b6024356105b981611d3a565b916001600160a01b038084168091831614610639576105eb936105e69133149081156105ed575b50611e3a565b612298565b005b610633915061062c9061061433916001600160a01b0316600052609c602052604060002090565b906001600160a01b0316600052602052604060002090565b5460ff1690565b386105e0565b608460405162461bcd60e51b815260206004820152602160248201527f4552433732313a20617070726f76616c20746f2063757272656e74206f776e6560448201527f72000000000000000000000000000000000000000000000000000000000000006064820152fd5b8015150361000e57565b503461000e57604036600319011261000e576024356004356106ce826106a3565b61070d6001600160a01b0380603354163314908182159283610769575b6106f490612e06565b6107018560fe5411612e51565b9161075b575b50612e06565b60009181835260ff60205261073181604085209060ff801983541691151516179055565b1515907f13723d113cacd273de1c6a40fd31f530c1868b6bf42f5833f70350ff78d79ad28380a380f35b60fb54163314905038610707565b5060fb54821633146106eb565b503461000e57600036600319011261000e57602060cb54604051908152f35b9181601f8401121561000e5782359167ffffffffffffffff831161000e576020808501948460051b01011161000e57565b9060031960408184011261000e5760043567ffffffffffffffff9182821161000e5761016090828603011261000e576004019260243591821161000e5761080f91600401610795565b9091565b503461000e57610822366107c6565b906101608336031261000e57610836611646565b9061084084610582565b825267ffffffffffffffff90602085013582811161000e5761086590369087016116c0565b6020840152604085013582811161000e5761088390369087016116c0565b6040840152606085013582811161000e576108a190369087016116c0565b6060840152608085013582811161000e576108bf90369087016116c0565b608084015260a085013582811161000e576108dd90369087016116c0565b60a084015260c085013582811161000e576108fb90369087016116c0565b60c084015260e085013582811161000e5761091990369087016116c0565b60e0840152610100938486013592831161000e576104b5956104a99561094561097495369084016116c0565b90860152610120610957818301612f62565b90860152610969610140809201612f62565b908501523691612f77565b9061395d565b606090600319011261000e5760043561099281610571565b9060243561099f81610571565b9060443590565b503461000e576105eb6109b83661097a565b916109cb6109c68433612026565b611eed565b612118565b503461000e57604036600319011261000e5760206109fc6004356109f381610571565b602435906124c9565b604051908152f35b503461000e576105eb610a163661097a565b90604051926020840184811067ffffffffffffffff821117610a3f575b60405260008452611f90565b610a47611598565b610a33565b503461000e57602036600319011261000e5760043560cb54811015610a9e5760cb6000527fa7ce836d032b2bf62b7e2097a8e0a6d8aeb35405ad15271e96d3b0188a1d06fb0154604051908152602090f35b608460405162461bcd60e51b815260206004820152602c60248201527f455243373231456e756d657261626c653a20676c6f62616c20696e646578206f60448201527f7574206f6620626f756e647300000000000000000000000000000000000000006064820152fd5b503461000e57602036600319011261000e576020610560600435611d3a565b503461000e57602036600319011261000e57600435610b498160fe5411612e51565b6000526101036020526020604060002054604051908152f35b6020908160408183019282815285518094520193019160005b828110610b89575050505090565b835185529381019392810192600101610b7b565b503461000e57602036600319011261000e57600435610bbb81610571565b610bc481611c65565b610bcd81612e9c565b91610bdb6040519384611624565b818352601f19610bea83612e9c565b0136602085013760005b828110610c0957604051806104b58682610b62565b80610c17610c2792846124c9565b610c218287612f32565b52612ede565b610bf4565b503461000e57602036600319011261000e576001600160a01b03600435610c5281610571565b610c5a611bc5565b166001600160a01b031960fb54161760fb55600080f35b503461000e57602036600319011261000e5760206109fc600435610c9481610571565b611c65565b503461000e5760008060031936011261053e57610cb4611bc5565b806001600160a01b036033546001600160a01b03198116603355167f8be0079c531659141344cd1fd0a4f28419497f9722a3daafe3b4186f6b6457e08280a380f35b503461000e5760208060031936011261000e576001600160a01b03600435610d1d81610571565b1660005260fd8152604060002090604051908181845491828152019360005281600020916000905b828210610d68576104b585610d5c81890382611624565b60405191829182610b62565b835486529485019460019384019390910190610d45565b90604060031983011261000e57600435916024359067ffffffffffffffff821161000e5761080f91600401610795565b503461000e576104b5610e636000610dc636610d7f565b82849293945260ff602052610de260ff60408420541615613836565b610dea614cb1565b50610e1b610df785614d23565b93610e0061303a565b92610e09613097565b8452610e1484614a24565b3691612f77565b6020820152610e42610e36610100546001600160a01b031690565b6001600160a01b031690565b6020840151604051809781948293635a5c64ef60e11b845260048401613925565b03915afa928315610f24575b600093610efd575b50610eaa90610e9183600052610103602052604060002090565b610e9b8154612ede565b9055516001600160a01b031690565b90610eb481611d3a565b6040514281526001600160a01b039182169390911691907f95474fc50506241409126520ce4036ede1ce133514e0e746730e5ab426cf8f7190602090a460405191829182610447565b610f1d90610eaa92943d8091833e610f158183611624565b81019061316c565b9290610e77565b610f2c612346565b610e6f565b503461000e57602036600319011261000e576004356001600160a01b0390816033541633148015610fdc575b610f6690612e06565b610f738160fe5411612e51565b806000526101036020526040600020610f8c8154612ede565b9055610f96614cb1565b5081610fa182614d23565b5116907f95474fc50506241409126520ce4036ede1ce133514e0e746730e5ab426cf8f716020610fd083611d3a565b604051428152951694a4005b5060fb5482163314610f5d565b503461000e57600036600319011261000e5760206001600160a01b0360335416604051908152f35b503461000e5760008060031936011261053e57604051908060985461103581611d5c565b80855291600191808316908115610514575060011461105e576104b5856104a981870382611624565b9250609883527f2237a976fa961f5921fd19f2b03c925c725d77b20ce8f790c19709c03de4d8145b8284106110a15750505081016020016104a9826104b5610499565b80546020858701810191909152909301928101611086565b503461000e576110c8366107c6565b60608392930160206110da828561334b565b9050116112345760fc54906110f66110f183612ede565b60fc55565b611100823361371e565b611109846134b1565b61113782611132611119876133c7565b6001600160a01b031660005260fd602052604060002090565b6126e5565b61114d610e36610102546001600160a01b031690565b803b1561000e576111cc6111c36111d8936111ac60006104b5986111d2966001600160a01b039c838b604051968795869485937fc5f4121e00000000000000000000000000000000000000000000000000000000855260048501613653565b03925af18015611227575b61120e575b508761334b565b918291976133c7565b966136a8565b906136b6565b81604051958695167fc263b302aec62d29105026245f19e16f8e0137066ccd4a8bd941f716bd4096bb600080a482526020820190565b8061121b611221926115af565b806103f4565b386111bc565b61122f612346565b6111b7565b606460405162461bcd60e51b815260206004820152601460248201527f6e616d65206c656e67746820757020746f2033320000000000000000000000006044820152fd5b503461000e57604036600319011261000e5760043561129681610571565b6024356112a2816106a3565b6001600160a01b0382169182331461132557816112e26112f39233600052609c6020526040600020906001600160a01b0316600052602052604060002090565b9060ff801983541691151516179055565b604051901515815233907f17307eab39ab6107e8899845ad3d59bd9653f200f220920489ca2b5937696c3190602090a3005b606460405162461bcd60e51b815260206004820152601960248201527f4552433732313a20617070726f766520746f2063616c6c6572000000000000006044820152fd5b90600e8210156113765752565b634e487b7160e01b600052602160045260246000fd5b90610458906060806113a78551608085526080850190610422565b94602081015160208501526040810151151560408501520151910190611369565b90602061045892818152019061138c565b503461000e576104b561148060006113f036610d7f565b6113fc93919293613053565b5083825260ff60205261141660ff60408420541615613836565b61141e614cb1565b5061142b610df785614d23565b6020820152611446610e36610100546001600160a01b031690565b60208401516040518097819482937f72dcce1100000000000000000000000000000000000000000000000000000000845260048401613925565b03915afa928315611528575b600093611501575b506114ae90610e9183600052610103602052604060002090565b906114b881611d3a565b6040514281526001600160a01b039182169390911691907f95474fc50506241409126520ce4036ede1ce133514e0e746730e5ab426cf8f7190602090a4604051918291826113c8565b611521906114ae92943d8091833e6115198183611624565b810190613897565b9290611494565b611530612346565b61148c565b503461000e57602036600319011261000e5760043561155381610571565b6001600160a01b0380603354163314801561158b575b61157290612e06565b61010191166001600160a01b0319825416179055600080f35b5060fb5481163314611569565b50634e487b7160e01b600052604160045260246000fd5b67ffffffffffffffff81116115c357604052565b6115cb611598565b604052565b6080810190811067ffffffffffffffff8211176115c357604052565b6040810190811067ffffffffffffffff8211176115c357604052565b6060810190811067ffffffffffffffff8211176115c357604052565b90601f8019910116810190811067ffffffffffffffff8211176115c357604052565b60405190610160820182811067ffffffffffffffff8211176115c357604052565b60405190610120820182811067ffffffffffffffff8211176115c357604052565b6040519061058d826115ec565b60209067ffffffffffffffff81116116b3575b601f01601f19160190565b6116bb611598565b6116a8565b81601f8201121561000e578035906116d782611695565b926116e56040519485611624565b8284526020838301011161000e57816000926020809301838601378301015290565b503461000e57608036600319011261000e5760043561172581610571565b60243561173181610571565b6064359167ffffffffffffffff831161000e576117556105eb9336906004016116c0565b9160443591611f90565b503461000e57606036600319011261000e5760043561177d81610571565b6117da60243561178c81610571565b6044359061179982610571565b600054936117be60ff8660081c161580968197611858575b8115611838575b506128d5565b846117d1600160ff196000541617600055565b61181f57612946565b6117e057005b6117f061ff001960005416600055565b604051600181527f7f26b83ff96e1f2b6a682f133852f6798a09c465da95921460cefb384740249890602090a1005b61183361010061ff00196000541617600055565b612946565b303b1591508161184a575b50386117b8565b6001915060ff161438611843565b600160ff82161091506117b1565b503461000e57602036600319011261000e576104b56104a96004358060005260ff60205261189c60ff6040600020541615613836565b6118a4614cb1565b506118b28160fe5411612e51565b6118bb8161337e565b509061199460096118ca611646565b936118ec6118df82546001600160a01b031690565b6001600160a01b03168652565b6118f860018201611d96565b602086015261190960028201611d96565b604086015261191a60038201611d96565b606086015261192b60048201611d96565b608086015261193c60058201611d96565b60a086015261194d60068201611d96565b60c086015261195e60078201611d96565b60e086015261196f60088201611d96565b610100860152015463ffffffff80821661012086015260209190911c16610140840152565b61199d81611d3a565b9060005261010360205260406000205491613c7e565b503461000e57602036600319011261000e576004356119d181610571565b6001600160a01b03806033541633148015611a09575b6119f090612e06565b61010091166001600160a01b0319825416179055600080f35b5060fb54811633146119e7565b503461000e57604036600319011261000e5760043567ffffffffffffffff80821161000e573660238301121561000e5781600401359080821161000e57366024838501011161000e5760243590811161000e576104b5926104a992611a816024933690600401610795565b9390920161328f565b503461000e57604036600319011261000e57602060ff611ae9600435611aaf81610571565b6001600160a01b0360243591611ac483610571565b16600052609c84526040600020906001600160a01b0316600052602052604060002090565b54166040519015158152f35b503461000e57602036600319011261000e57600435611b1381610571565b611b1b611bc5565b6001600160a01b03811615611b33576105eb90611c1d565b608460405162461bcd60e51b815260206004820152602660248201527f4f776e61626c653a206e6577206f776e657220697320746865207a65726f206160448201527f64647265737300000000000000000000000000000000000000000000000000006064820152fd5b503461000e57600036600319011261000e5760206001600160a01b0360fb5416604051908152f35b6001600160a01b03603354163303611bd957565b606460405162461bcd60e51b815260206004820152602060248201527f4f776e61626c653a2063616c6c6572206973206e6f7420746865206f776e65726044820152fd5b603354906001600160a01b0380911691826001600160a01b0319821617603355167f8be0079c531659141344cd1fd0a4f28419497f9722a3daafe3b4186f6b6457e0600080a3565b6001600160a01b03168015611c8557600052609a60205260406000205490565b608460405162461bcd60e51b815260206004820152602960248201527f4552433732313a2061646472657373207a65726f206973206e6f74206120766160448201527f6c6964206f776e657200000000000000000000000000000000000000000000006064820152fd5b15611cf657565b606460405162461bcd60e51b815260206004820152601860248201527f4552433732313a20696e76616c696420746f6b656e20494400000000000000006044820152fd5b60005260996020526001600160a01b0360406000205416610458811515611cef565b90600182811c92168015611d8c575b6020831014611d7657565b634e487b7160e01b600052602260045260246000fd5b91607f1691611d6b565b9060405191826000825492611daa84611d5c565b908184526001948581169081600014611e175750600114611dd4575b505061058d92500383611624565b9093915060005260209081600020936000915b818310611dff57505061058d93508201013880611dc6565b85548884018501529485019487945091830191611de7565b91505061058d94506020925060ff191682840152151560051b8201013880611dc6565b15611e4157565b608460405162461bcd60e51b815260206004820152603d60248201527f4552433732313a20617070726f76652063616c6c6572206973206e6f7420746f60448201527f6b656e206f776e6572206f7220617070726f76656420666f7220616c6c0000006064820152fd5b611ed3611ece8260005260996020526001600160a01b0360406000205416151590565b611cef565b600052609b6020526001600160a01b036040600020541690565b15611ef457565b608460405162461bcd60e51b815260206004820152602d60248201527f4552433732313a2063616c6c6572206973206e6f7420746f6b656e206f776e6560448201527f72206f7220617070726f766564000000000000000000000000000000000000006064820152fd5b604051906020820182811067ffffffffffffffff821117611f83575b60405260008252565b611f8b611598565b611f7a565b90611fb4939291611fa46109c68433612026565b611faf838383612118565b612383565b15611fbb57565b60405162461bcd60e51b815260206004820152603260248201527f4552433732313a207472616e7366657220746f206e6f6e20455243373231526560448201527f63656976657220696d706c656d656e74657200000000000000000000000000006064820152608490fd5b6001600160a01b038061203884611d3a565b16928183169284841494851561206e575b50508315612058575b50505090565b61206491929350611eab565b1614388080612052565b60ff9295509061209d91600052609c6020526040600020906001600160a01b0316600052602052604060002090565b5416923880612049565b156120ae57565b608460405162461bcd60e51b815260206004820152602560248201527f4552433732313a207472616e736665722066726f6d20696e636f72726563742060448201527f6f776e65720000000000000000000000000000000000000000000000000000006064820152fd5b61213c9061212584611d3a565b6001600160a01b03828116939091821684146120a7565b831692831561222f576121ad82612157878461220896612580565b61216d85612167610e368a611d3a565b146120a7565b61219461218488600052609b602052604060002090565b6001600160a01b03198154169055565b6001600160a01b0316600052609a602052604060002090565b60001981540190556121d2816001600160a01b0316600052609a602052604060002090565b600181540190556121ed856000526099602052604060002090565b906001600160a01b03166001600160a01b0319825416179055565b7fddf252ad1be2c89b69c2b068fc378daa952ba7f163c4a11628f55a4df523b3ef600080a4565b608460405162461bcd60e51b8152602060048201526024808201527f4552433732313a207472616e7366657220746f20746865207a65726f2061646460448201527f72657373000000000000000000000000000000000000000000000000000000006064820152fd5b81600052609b6020526122c5816040600020906001600160a01b03166001600160a01b0319825416179055565b6001600160a01b03806122d784611d3a565b169116907f8c5be1e5ebec7d5bd14f71427d1e84f3dd0314c0f7b2291e5b200ac8c7c3b925600080a4565b9081602091031261000e5751610458816102c4565b909261045894936080936001600160a01b03809216845216602083015260408201528160608201520190610422565b506040513d6000823e3d90fd5b3d1561237e573d9061236482611695565b916123726040519384611624565b82523d6000602084013e565b606090565b92909190823b156124c0576123d79260209260006001600160a01b036040518097819682957f150b7a02000000000000000000000000000000000000000000000000000000009b8c85523360048601612317565b0393165af160009181612490575b5061246a576123f2612353565b805190816124655760405162461bcd60e51b815260206004820152603260248201527f4552433732313a207472616e7366657220746f206e6f6e20455243373231526560448201527f63656976657220696d706c656d656e74657200000000000000000000000000006064820152608490fd5b602001fd5b7fffffffff00000000000000000000000000000000000000000000000000000000161490565b6124b291925060203d81116124b9575b6124aa8183611624565b810190612302565b90386123e5565b503d6124a0565b50505050600190565b6124d281611c65565b8210156124ff576001600160a01b031660005260c960205260406000209060005260205260406000205490565b608460405162461bcd60e51b815260206004820152602b60248201527f455243373231456e756d657261626c653a206f776e657220696e646578206f7560448201527f74206f6620626f756e64730000000000000000000000000000000000000000006064820152fd5b50634e487b7160e01b600052603260045260246000fd5b9091906001600160a01b0380821691826125c3575061259e8361272f565b8316806125b157505061058d91506127bf565b036125ba575050565b61058d916126ac565b81851683036125d3575b5061259e565b6125dc81611c65565b600019810190811161269f575b61263460009286845260ca6020526040842054838103612645575b508361261a8860005260ca602052604060002090565b556001600160a01b031660005260c9602052604060002090565b9082526020526040812055386125cd565b86855260c960205260408520848652602052612698604086205461267c846001600160a01b031660005260c9602052604060002090565b83885260205280604088205560005260ca602052604060002090565b5538612604565b6126a76127a8565b6125e9565b6040906126b881611c65565b926001600160a01b0360009216825260c96020528282208483526020528083832055815260ca6020522055565b80549068010000000000000000821015612722575b60018201808255821015612715575b60005260206000200155565b61271d612569565b612709565b61272a611598565b6126fa565b60cb548160005260cc602052806040600020556801000000000000000081101561279b575b600181018060cb5581101561278e575b60cb6000527fa7ce836d032b2bf62b7e2097a8e0a6d8aeb35405ad15271e96d3b0188a1d06fb0155565b612796612569565b612764565b6127a3611598565b612754565b50634e487b7160e01b600052601160045260246000fd5b60cb805460001992908381018181116128c8575b61286f600093849281845260cc6020528460408520549110156128bb575b86845261285e7fa7ce836d032b2bf62b7e2097a8e0a6d8aeb35405ad15271e96d3b0188a1d06fa9586810154908310156128ae575b88865280837fa7ce836d032b2bf62b7e2097a8e0a6d8aeb35405ad15271e96d3b0188a1d06fb015560005260cc602052604060002090565b5560005260cc602052604060002090565b55825493841561289a578401938085101561288d575b838352015555565b612895612569565b612885565b602483634e487b7160e01b81526031600452fd5b6128b6612569565b612826565b6128c3612569565b6127f1565b6128d06127a8565b6127d3565b156128dc57565b608460405162461bcd60e51b815260206004820152602e60248201527f496e697469616c697a61626c653a20636f6e747261637420697320616c72656160448201527f647920696e697469616c697a65640000000000000000000000000000000000006064820152fd5b906001600160a01b03906001600160a01b031992826101009116848254161790558161010191168382541617905561010292169082541617905561299a60ff60005460081c1661299581612a49565b612a49565b6129a333611c1d565b612a186040516129b2816115ec565b600881527f457865546f6b656e0000000000000000000000000000000000000000000000006020820152604051906129e9826115ec565b600382527f45584500000000000000000000000000000000000000000000000000000000006020830152612aba565b61058d612a2d6033546001600160a01b031690565b6001600160a01b03166001600160a01b031960fb54161760fb55565b15612a5057565b608460405162461bcd60e51b815260206004820152602b60248201527f496e697469616c697a61626c653a20636f6e7472616374206973206e6f74206960448201527f6e697469616c697a696e670000000000000000000000000000000000000000006064820152fd5b90612ad060ff60005460081c1661299581612a49565b815167ffffffffffffffff8111612bcb575b612af681612af1609754611d5c565b612bd8565b602080601f8311600114612b385750819061058d94600092612b2d575b50508160011b916000199060031b1c191617609755612d0e565b015190503880612b13565b919293601f198416612b6c60976000527f354a83ed9988f79f6038d4c7a7dadbad8af32f4ad6df893e0e5807a1b1944ff990565b936000905b828210612bb357505091600193918561058d97969410612b9a575b505050811b01609755612d0e565b015160001960f88460031b161c19169055388080612b8c565b80600186978294978701518155019601940190612b71565b612bd3611598565b612ae2565b601f8111612be4575050565b600090609782527f354a83ed9988f79f6038d4c7a7dadbad8af32f4ad6df893e0e5807a1b1944ff9906020601f850160051c83019410612c3f575b601f0160051c01915b828110612c3457505050565b818155600101612c28565b9092508290612c1f565b601f8111612c55575050565b600090609882527f2237a976fa961f5921fd19f2b03c925c725d77b20ce8f790c19709c03de4d814906020601f850160051c83019410612cb0575b601f0160051c01915b828110612ca557505050565b818155600101612c99565b9092508290612c90565b90601f8111612cc857505050565b600091825260208220906020601f850160051c83019410612d04575b601f0160051c01915b828110612cf957505050565b818155600101612ced565b9092508290612ce4565b90815167ffffffffffffffff8111612df9575b612d3581612d30609854611d5c565b612c49565b602080601f8311600114612d715750819293600092612d66575b50508160011b916000199060031b1c191617609855565b015190503880612d4f565b90601f19831694612da460986000527f2237a976fa961f5921fd19f2b03c925c725d77b20ce8f790c19709c03de4d81490565b926000905b878210612de1575050836001959610612dc8575b505050811b01609855565b015160001960f88460031b161c19169055388080612dbd565b80600185968294968601518155019501930190612da9565b612e01611598565b612d21565b15612e0d57565b606460405162461bcd60e51b815260206004820152600a60248201527f6f6e6c792061646d696e000000000000000000000000000000000000000000006044820152fd5b15612e5857565b606460405162461bcd60e51b815260206004820152601060248201527f746f6b656e206e6f7420657869737473000000000000000000000000000000006044820152fd5b60209067ffffffffffffffff8111612eb6575b60051b0190565b612ebe611598565b612eaf565b60405190612ed082611608565b600282526040366020840137565b6001906000198114612eee570190565b612ef66127a8565b0190565b602090805115612f08570190565b612ef6612569565b604090805160011015612f08570190565b606090805160021015612f08570190565b6020918151811015612f47575b60051b010190565b612f4f612569565b612f3f565b63ffffffff81160361000e57565b359061058d82612f54565b600e111561000e57565b929190612f8381612e9c565b91604091612f9383519485611624565b839581855260208095019160051b81019383851161000e5781925b858410612fbe5750505050505050565b67ffffffffffffffff843581811161000e5784019160808388031261000e578351612fe8816115d0565b833592831161000e5783613001898c96958796016116c0565b8252838101358483015285810135613018816106a3565b868301526060809101359061302c82612f6d565b820152815201930192612fae565b60405190613047826115ec565b60606020838281520152565b604051906080820182811067ffffffffffffffff82111761308a575b60405260006060838181528260208201528260408201520152565b613092611598565b61306f565b60409081516130a5816115ec565b60018152809160005b6020808210156130e2578551602092916130c7826115ec565b606082526130d3613053565b818301528286010152016130ae565b505091925050565b6040908151916130f983611608565b600283528260005b82811061310d57505050565b602090835161311b816115ec565b60608152613127613053565b8184015283820183015201613101565b9092919261314481611695565b916131526040519384611624565b82948284528282011161000e57602061058d9301906103ff565b60208183031261000e5780519067ffffffffffffffff821161000e57019080601f8301121561000e57815161045892602001613137565b90815180825260208092019182818360051b85019501936000915b8483106131ce5750505050505090565b90919293949584806131e883856001950387528a5161138c565b98019301930191949392906131be565b9190604090818101908451918382528251809152606082019060608160051b840101946020809501926000915b8383106132455750505050508161045894950151918184039101526131a3565b90919293968680613280600193605f198a82030187528b519083613270835189845289840190610422565b920151908481840391015261138c565b99019301930191939290613225565b92816064946132b66000956132a261303a565b946132ab613097565b8652610e1486614a24565b60208401526133146001600160a01b0361010054169360405197889687958695635a5c64ef60e11b875260406004880152816044880152838701378481018201899052601f01601f19168401848103606001602486015201906131f8565b03915afa90811561333e575b60009161332b575090565b610458913d8091833e610f158183611624565b613346612346565b613320565b903590601e198136030182121561000e570180359067ffffffffffffffff821161000e5760200191813603831361000e57565b600a9060fe548110156133ba575b60fe600052027f54075df80ec1ae6ac9100e1fd0ebf3246c17f5c933137af392011f4c5f61513a0190600090565b6133c2612569565b61338c565b3561045881610571565b90929167ffffffffffffffff811161349a575b6133f8816133f28454611d5c565b84612cba565b6000601f82116001146134325781929394600092613427575b50508160011b916000199060031b1c1916179055565b013590503880613411565b601f1982169461344784600052602060002090565b91805b878110613482575083600195969710613468575b505050811b019055565b0135600019600384901b60f8161c1916905538808061345e565b9092602060018192868601358155019401910161344a565b6134a2611598565b6133e4565b3561045881612f54565b6134d560fe5468010000000000000000811015613646575b6001810160fe5561337e565b9190916136305761360f610140600961058d946135106134f4866133c7565b82906001600160a01b03166001600160a01b0319825416179055565b61352a613520602087018761334b565b90600184016133d1565b61354461353a604087018761334b565b90600284016133d1565b61355e613554606087018761334b565b90600384016133d1565b61357861356e608087018761334b565b90600484016133d1565b61359261358860a087018761334b565b90600584016133d1565b6135ac6135a260c087018761334b565b90600684016133d1565b6135c66135bc60e087018761334b565b90600784016133d1565b6135e16135d761010087018761334b565b90600884016133d1565b01926136096135f361012083016134a7565b855463ffffffff191663ffffffff909116178555565b016134a7565b67ffffffff0000000082549160201b169067ffffffff000000001916179055565b634e487b7160e01b600052600060045260246000fd5b61364e611598565b6134c9565b6060909391929360408101938152826020946040868401525201929160005b828110613680575050505090565b90919293828060019263ffffffff883561369981612f54565b16815201950193929101613672565b90929192831161000e579190565b3590602081106136c4575090565b6000199060200360031b1b1690565b156136da57565b606460405162461bcd60e51b815260206004820152601c60248201527f4552433732313a20746f6b656e20616c7265616479206d696e746564000000006044820152fd5b6001600160a01b0381169081156137f2576137ca9061375c6137568560005260996020526001600160a01b0360406000205416151590565b156136d3565b6137658461272f565b61376f84826126ac565b6137926137568560005260996020526001600160a01b0360406000205416151590565b6137af816001600160a01b0316600052609a602052604060002090565b600181540190556121ed846000526099602052604060002090565b60007fddf252ad1be2c89b69c2b068fc378daa952ba7f163c4a11628f55a4df523b3ef8180a4565b606460405162461bcd60e51b815260206004820152602060248201527f4552433732313a206d696e7420746f20746865207a65726f20616464726573736044820152fd5b1561383d57565b606460405162461bcd60e51b815260206004820152600e60248201527f746f6b656e2064697361626c65640000000000000000000000000000000000006044820152fd5b519061058d826106a3565b519061058d82612f6d565b9060208282031261000e57815167ffffffffffffffff9283821161000e57019060808282031261000e57604051926138ce846115d0565b825190811161000e5782019181601f8401121561000e576138fa60609284602061391d96519101613137565b84526020810151602085015261391260408201613881565b60408501520161388c565b606082015290565b909161393c61045893604084526040840190610422565b9160208184039101526131f8565b90612ef6602092828151948592016103ff565b9061396890826146d7565b6060820151906080830151926040810151906020810151613988906140a7565b905161399c906001600160a01b0316613fcd565b6139a4613f38565b916139ad613d8b565b6040517f7b226e616d65223a2200000000000000000000000000000000000000000000006020820152978897919591602989016139e99161394a565b7f222c226465736372697074696f6e223a220000000000000000000000000000008152601101613a189161394a565b7f222c2261747472696275746573223a5b0000000000000000000000000000000081526010017f7b2274726169745f74797065223a20226c616e67222c2276616c7565223a22008152601f01613a6d9161394a565b7f227d2c7b2274726169745f74797065223a2022636f6465222c2276616c75652281527f3a220000000000000000000000000000000000000000000000000000000000006020820152602201613ac29161394a565b7f227d2c7b2274726169745f74797065223a202263726561746f72222c2276616c81527f7565223a220000000000000000000000000000000000000000000000000000006020820152602501613b179161394a565b7f227d2c7b2274726169745f74797065223a20226f776e6572222c2276616c756581527f223a2200000000000000000000000000000000000000000000000000000000006020820152602301613b6c9161394a565b7f227d2c7b2274726169745f74797065223a20226578656375746564436f756e7481527f222c2276616c7565223a220000000000000000000000000000000000000000006020820152602b01613bc19161394a565b7f227d5d2c22696d616765223a22000000000000000000000000000000000000008152600d01613bf09161394a565b7f227d00000000000000000000000000000000000000000000000000000000000081526002010390601f19918281018252613c2b9082611624565b613c34906140a7565b6040517f646174613a6170706c69636174696f6e2f6a736f6e3b6261736536342c000000602082015291908290603d8201613c6e9161394a565b0390810182526104589082611624565b919091613c8a81614445565b906060810151926080820151946040830151926020810151613cab906140a7565b9051613cbf906001600160a01b0316613fcd565b916001600160a01b0316613cd290613fcd565b926139ad90613dc4565b60405190613ce982611608565b602a82526040366020840137565b90613d0182611695565b613d0e6040519182611624565b8281528092613d1f601f1991611695565b0190602036910137565b9060028201809211613d3757565b61058d6127a8565b9060018201809211613d3757565b9060208201809211613d3757565b602190805160011015612f08570190565b906020918051821015613d7e57010190565b613d86612569565b010190565b604051613d97816115ec565b600181527f3000000000000000000000000000000000000000000000000000000000000000602082015290565b8015613e78576000818181805b613e605750613ddf81613cf7565b935b613deb5750505090565b6000198101908111613e53575b8091600a91613e3d7fff0000000000000000000000000000000000000000000000000000000000000060308585068101809111613e46575b60f81b16861a9187613d6c565b53049081613de1565b613e4e6127a8565b613e30565b613e5b6127a8565b613df8565b9150613e6d600a91612ede565b910480849291613dd1565b50604051613d97816115ec565b908160021b917f3fffffffffffffffffffffffffffffffffffffffffffffffffffffffffffffff811603613d3757565b90670de0b6b3a764000091828102928184041490151715613d3757565b8015613ee0575b6000190190565b613ee86127a8565b613ed9565b15613ef457565b606460405162461bcd60e51b815260206004820152602060248201527f537472696e67733a20686578206c656e67746820696e73756666696369656e746044820152fd5b6000613f42613cdc565b906030613f4e83612efa565b536078613f5a83613d5b565b536029905b60018211613f7257610458915015613eed565b807f3031323334353637383961626364656600000000000000000000000000000000600f613fba93166010811015613fc0575b1a613fb08486613d6c565b5360041c91613ed2565b90613f5f565b613fc8612569565b613fa5565b613fd5613cdc565b906030613fe183612efa565b536078613fed83613d5b565b536029905b6001821161400557610458915015613eed565b807f3031323334353637383961626364656600000000000000000000000000000000600f61404293166010811015613fc0571a613fb08486613d6c565b90613ff2565b6040519061405582611608565b604082527f6768696a6b6c6d6e6f707172737475767778797a303132333435363738392b2f6040837f4142434445464748494a4b4c4d4e4f505152535455565758595a61626364656660208201520152565b8051156141c6576140b6614048565b6140d26140cd6140c68451613d29565b6003900490565b613e85565b916140e46140df84613d4d565b613cf7565b92835280815182019060208501935b82821061416a5750505060039051068060011461413f57600214614115575090565b7f3d0000000000000000000000000000000000000000000000000000000000000090600019015290565b507f3d3d00000000000000000000000000000000000000000000000000000000000090600119015290565b90919360049060038094019384516001603f81818460121c16880101519260f893841b8652828282600c1c1689010151841b8387015282828260061c1689010151841b60028701521686010151901b90820152019391906140f3565b50610458611f5e565b604051906141dc826115ec565b600a82527f646174613a696d616765000000000000000000000000000000000000000000006020830152565b60405190614215826115ec565b600482527f6e616d65000000000000000000000000000000000000000000000000000000006020830152565b6040519061424e826115ec565b600b82527f6465736372697074696f6e0000000000000000000000000000000000000000006020830152565b60405190614287826115ec565b600482527f636f6465000000000000000000000000000000000000000000000000000000006020830152565b604051906142c0826115ec565b600682527f726573756c7400000000000000000000000000000000000000000000000000006020830152565b6000915b600283106142fd57505050565b60019063ffffffff835116815260208091019201920191906142f0565b9291606061058d9261015e80875260208701526080604087015261434c815161014060808901526101c0880190610422565b6143af614399614386614372602086015194607f19958c60a08882850301910152610422565b6040860151858c83030160c08d0152610422565b85850151848b83030160e08c0152610422565b6080840151610100938a830301848b0152610422565b916143c360a08201516101208a01906142ec565b60c081015161016089015260e081015161018089015201516101a08701529401906001600160a01b03169052565b9061058d603a60405180947f646174613a696d6167652f7376672b786d6c3b6261736536342c000000000000602083015261443581518092602086860191016103ff565b810103601a810185520183611624565b60a08101906144656144578351614e11565b61445f6141cf565b90614e91565b1561446f57505190565b61457a6000610458936145a99360609061448c835161445f614208565b84146145d45761020091506060810151925b519060c08101519160e08201516101009384840151926144fd6144f06101406144c5611688565b976144e56144db61012083015163ffffffff1690565b63ffffffff168a52565b015163ffffffff1690565b63ffffffff166020870152565b614505611667565b978852602088015260408701526060860152608085015260a084015261015e8060c085015260e0840152820152614545610101546001600160a01b031690565b9060405193849283927f58c92ec00000000000000000000000000000000000000000000000000000000084526004840161431a565b038173__$5b562c355aff420f155d99b44c1e69fd68$__5af49081156145c7575b6000916145ae575b506140a7565b6143f1565b6145c1913d8091833e610f158183611624565b386145a3565b6145cf612346565b61459b565b6145e1835161445f614241565b84146145f757610200915060808101519261449e565b614604835161445f61427a565b841461461a57610200915060208101519261449e565b614627835161445f6142b3565b614636575b610200919261449e565b614696846102009361464661303a565b9060208201526146546130ea565b815261465f81614c0c565b614675610e36610100546001600160a01b031690565b6020850151604051809581948293635a5c64ef60e11b845260048401613925565b03915afa9081156146ca575b85916146b1575b50915061462c565b6146c4913d8091833e610f158183611624565b386146a9565b6146d2612346565b6146a2565b9060a08201916146ea6144578451614e11565b156146f55750505190565b6000610458936145a99361457a93606091614713845161445f614208565b851461474c57506102009150606081015192519060c08101519160e08201516101009384840151926144fd6144f06101406144c5611688565b614759845161445f614241565b85146147705750610200915060808101519261449e565b61477d845161445f61427a565b85146147945750610200915060208101519261449e565b6147a1845161445f6142b3565b6147b1575b50610200919261449e565b6102009250846147c39161464661303a565b03915afa9081156147f6575b85916147dd575b50916147a6565b6147f0913d8091833e610f158183611624565b386147d6565b6147fe612346565b6147cf565b6040519060a0820182811067ffffffffffffffff821117614842575b604052600060808360608152606060208201528260408201528260608201520152565b61484a611598565b61481f565b6040519061485c826115ec565b600b82527f626c6f636b4e756d6265720000000000000000000000000000000000000000006020830152565b60405190614895826115ec565b600982527f74696d657374616d7000000000000000000000000000000000000000000000006020830152565b604051906148ce826115ec565b6000602083606081520152565b604051906080820182811067ffffffffffffffff821117614925575b604052600382528160005b6060811061490e575050565b602090614919614803565b82828501015201614902565b61492d611598565b6148f7565b602091828252606092838301918051946040938484870152865180915260809182870185848460051b8a01019901936000925b84841061497a57505050505050015191015290565b90919293949987808a6149db6001948f8f89918291607f19908503018c52516149be6149ae825160a0808852870190610422565b888301518682038a880152610422565b9580820151908501528981015115158a8501520151910190611369565b9c01940194019294939190614965565b604051906149f8826115ec565b600d82527f657468657265756d426c6f636b000000000000000000000000000000000000006020830152565b90614a76614a30614803565b91614a3961484f565b60209080828601528181519101209060409182860152614a5c6080860160049052565b614a6543613eb5565b825182810191825294859160200190565b0393614a8a601f1995868101835282611624565b855260016060860152614a9b614803565b95614aa4614888565b808389015282815191012083880152614ac06080880160049052565b614ae0614aec614acf42613eb5565b855185810191825292839160200190565b03878101835282611624565b875260016060880152614afd614803565b6007608082015294614b0d612ec3565b9560005b8751811015614b365780614b27614b3192613d3f565b610c21828b612f32565b614b11565b50614bbb614c079699614ba8879a879a614b6c614bde99614b60614bea9a9c519384928301610b62565b03888101835282611624565b8552614b95614b796148c1565b95614b826148db565b90818852614b8f82612efa565b52612efa565b50845190614ba282612f10565b52612f10565b50825190614bb582612f21565b52612f21565b50600087820152614bca613053565b600760608201529751938491888301614932565b03908101835282611624565b8452614bf68151612efa565b51614bff6149eb565b905251612efa565b510152565b90614c18614a30614803565b0393614c2c601f1995868101835282611624565b855260016060860152614c3d614803565b95614c46614888565b808389015282815191012083880152614c626080880160049052565b614ae0614c71614acf42613eb5565b875260016060880152614c82614803565b6007608082015294614c92612ec3565b9560005b8751811015614b365780614b27614cac92613d3f565b614c96565b60405190610160820182811067ffffffffffffffff821117614d16575b604052600061014083828152606080602083015280604083015280808301528060808301528060a08301528060c08301528060e0830152610100820152826101208201520152565b614d1e611598565b614cce565b614d3990614d348160fe5411612e51565b61337e565b506104586009614d47611646565b92614d69614d5c82546001600160a01b031690565b6001600160a01b03168552565b614d7560018201611d96565b6020850152614d8660028201611d96565b6040850152614d9760038201611d96565b6060850152614da860048201611d96565b6080850152614db960058201611d96565b60a0850152614dca60068201611d96565b60c0850152614ddb60078201611d96565b60e0850152614dec60088201611d96565b610100850152015463ffffffff80821661012085015260209190911c16610140830152565b600a80825110614e8d5760405191614e28836115ec565b81835260203681850137600090815b838110614e45575050505090565b807fff00000000000000000000000000000000000000000000000000000000000000614e74614e889385613d6c565b5116841a614e828288613d6c565b53612ede565b614e37565b5090565b919060009280519082518214614ea657505050565b90919350600193601f60059301831c9260005b8685821016614ec9575050505050565b80821b8381016020908101519186010151149650600101614eb956fea2646970667358221220922f6b6b88251c74fc7f459982c6a428b616c647fafaa76ea8298d75230881b764736f6c63430008110033",
  "linkReferences": {
    "contracts/util/TokenSvg.sol": {
      "TokenSvg": [
        {
          "length": 20,
          "start": 17818
        }
      ]
    }
  },
  "deployedLinkReferences": {
    "contracts/util/TokenSvg.sol": {
      "TokenSvg": [
        {
          "length": 20,
          "start": 17790
        }
      ]
    }
  }
}